S011000070696E6F636368494F2E7372656397
S3150800000000000120D1290008212A0008212A000819
S31508000010212A0008212A0008212A000800000000D9
S31508000020000000000000000000000000212A00086F
S31508000030212A000800000000212A000809170008E4
S31508000040212A0008212A0008212A0008212A000856
S31508000050212A0008212A0008212A0008212A000846
S31508000060212A0008212A0008212A0008212A000836
S31508000070212A0008212A0008212A0008212A000826
S31508000080212A0008212A0008212A0008212A000816
S31508000090E9250008212A0008212A0008212A000843
S315080000A0212A0008F9150008212A0008212A000833
S315080000B0212A0008212A0008212A0008212A0008E6
S315080000C0212A0008212A0008212A0008212A0008D6
S315080000D0212A0008212A0008212A0008212A0008C6
S315080000E0212A0008212A000800000000212A000809
S315080000F0212A0008212A0008212A0008212A0008A6
S31508000100212A0008212A0008212A0008212A000895
S31508000110212A0008212A0008212A0008212A000885
S31508000120212A0008212A0008212A0008212A000875
S3150800013010B5054C237833B9044B13B10448AFF313
S3150800014000800123237010BDD401002000000000A8
S31508000150186E000808B5034B1BB103490348AFF3F3
S31508000160008008BD00000000D8010020186E0008B5
S31508000170034613F8012B002AFBD1181A01387047D9
S3150800018081F0004102E000BF83F0004330B54FEA3A
S3150800019041044FEA430594EA050F08BF90EA020FA7
S315080001A01FBF54EA000C55EA020C7FEA645C7FEA3A
S315080001B0655C00F0E2804FEA5454D4EB5555B8BF5D
S315080001C06D420CDD2C4480EA020281EA030382EACE
S315080001D0000083EA010180EA020281EA0303362D60
S315080001E088BF30BD11F0004F4FEA01314FF4801C33
S315080001F04CEA113102D0404261EB410113F0004F45
S315080002004FEA03334CEA133302D0524263EB4303FB
S3150800021094EA050F00F0A780A4F10104D5F1200E99
S315080002200DDB02FA0EFC22FA05F2801841F10001F4
S3150800023003FA0EF2801843FA05F359410EE0A5F1C8
S3150800024020050EF1200E012A03FA0EFC28BF4CF0F9
S31508000250020C43FA05F3C01851EBE37101F00045AF
S3150800026007D54FF0000EDCF1000C7EEB00006EEBBC
S315080002700101B1F5801F1BD3B1F5001F0CD3490846
S315080002805FEA30004FEA3C0C04F101044FEA44529D
S3150800029012F5800F80F09A80BCF1004F08BF5FEA24
S315080002A0500C50F1000041EB045141EA050130BD04
S315080002B05FEA4C0C404141EB010111F4801FA4F1A7
S315080002C00104E9D191F0000F04BF01460020B1FAFC
S315080002D081F308BF2033A3F10B03B3F120020CDA34
S315080002E00C3208DD02F1140CC2F10C0201FA0CF012
S315080002F021FA02F10CE002F11402D8BFC2F1200C77
S3150800030001FA02F120FA0CFCDCBF41EA0C0190402C
S31508000310E41AA2BF01EB0451294330BD6FEA040475
S315080003201F3C1CDA0C340EDC04F11404C4F1200260
S3150800033020FA04F001FA02F340EA030021FA04F372
S3150800034045EA030130BDC4F10C04C4F1200220FAC9
S3150800035002F001FA04F340EA0300294630BD21FA07
S3150800036004F0294630BD94F0000F83F4801306BFCD
S3150800037081F480110134013D4EE77FEA645C18BFC1
S315080003807FEA655C29D094EA050F08BF90EA020F58
S3150800039005D054EA000C04BF1946104630BD91EA50
S315080003A0030F1EBF0021002030BD5FEA545C05D153
S315080003B04000494128BF41F0004130BD14F5800492
S315080003C03CBF01F5801130BD01F0004545F0FE4106
S315080003D041F470014FF0000030BD7FEA645C1ABF3B
S315080003E0194610467FEA655C1CBF0B46024650EA72
S315080003F0013406BF52EA033591EA030F41F400219E
S3150800040030BD00BF90F0000F04BF0021704730B523
S315080004104FF4806404F132044FF000054FF00001F8
S3150800042050E700BF90F0000F04BF0021704730B5B9
S315080004304FF4806404F1320410F0004548BF40428E
S315080004404FF000013EE700BF42004FEAE2014FEAE3
S3150800045031014FEA02701FBF12F07F4393F07F4FBE
S3150800046081F06051704732F07F4208BF704793F0C1
S315080004707F4F04BF41F40021704730B54FF46074D4
S3150800048001F0004521F000411CE700BF50EA0102D7
S3150800049008BF704730B54FF000050AE050EA010280
S315080004A008BF704730B511F0004502D5404261EBF0
S315080004B041014FF4806404F132045FEA915C3FF431
S315080004C0D8AE4FF003025FEADC0C18BF03325FEACE
S315080004D0DC0C18BF033202EBDC02C2F1200300FA7F
S315080004E003FC20FA02F001FA03FE40EA0E0021FAA4
S315080004F002F11444BDE600BF70B54FF0FF0C4CF492
S31508000500E06C1CEA11541DBF1CEA135594EA0C0F43
S3150800051095EA0C0F00F0DEF82C4481EA030621EA7E
S315080005204C5123EA4C5350EA013518BF52EA0335B9
S3150800053041F4801143F4801338D0A0FB02CE4FF06B
S315080005400005E1FB02E506F00042E0FB03E54FF09B
S315080005500006E1FB03569CF0000F18BF4EF0010E93
S31508000560A4F1FF04B6F5007F64F5407404D25FEA8F
S315080005704E0E6D4146EB060642EAC62141EA555142
S315080005804FEAC52040EA5E504FEACE2EB4F1FD0C84
S3150800059088BFBCF5E06F1ED8BEF1004F08BF5FEA02
S315080005A0500E50F1000041EB045170BD06F00046B4
S315080005B046EA010140EA020081EA0301B4EB5C0461
S315080005C0C2BFD4EB0C0541EA045170BD41F4801159
S315080005D04FF0000E013C00F3AB8014F1360FDEBF7E
S315080005E0002001F0004170BDC4F10004203C35DA5A
S315080005F00C341BDC04F11404C4F1200500FA05F3DD
S3150800060020FA04F001FA05F240EA020001F000427D
S3150800061021F0004110EBD37021FA04F642EB0601F3
S315080006205EEA430E08BF20EAD37070BDC4F10C041D
S31508000630C4F1200500FA04F320FA05F001FA04F2E1
S3150800064040EA020001F0004110EBD37041F10001CD
S315080006505EEA430E08BF20EAD37070BDC4F12005D8
S3150800066000FA05F24EEA020E20FA04F301FA05F240
S3150800067043EA020321FA04F001F0004121FA04F2E8
S3150800068020EA020000EBD3705EEA430E08BF20EAB8
S31508000690D37070BD94F0000F0FD101F000464000F2
S315080006A041EB010111F4801F08BF013CF7D041EA74
S315080006B0060195F0000F18BF704703F00046520078
S315080006C043EB030313F4801F08BF013DF7D043EA49
S315080006D00603704794EA0C0F0CEA135518BF95EAFF
S315080006E00C0F0CD050EA410618BF52EA4306D1D186
S315080006F081EA030101F000414FF0000070BD50EAA5
S31508000700410606BF1046194652EA430619D094EA2E
S315080007100C0F02D150EA013613D195EA0C0F05D118
S3150800072052EA03361CBF104619460AD181EA03016C
S3150800073001F0004141F0FE4141F470014FF0000024
S3150800074070BD41F0FE4141F4780170BD70B54FF0BF
S31508000750FF0C4CF4E06C1CEA11541DBF1CEA13553F
S3150800076094EA0C0F95EA0C0F00F0A7F8A4EB050421
S3150800077081EA030E52EA03354FEA013100F0888018
S315080007804FEA03334FF0805545EA131343EA1263E1
S315080007904FEA022245EA111545EA10654FEA002696
S315080007A00EF000419D4208BF964244F1FD0404F54F
S315080007B0407402D25B084FEA3202B61A65EB0305AB
S315080007C05B084FEA32024FF480104FF4002CB6EB68
S315080007D0020E75EB030E22BFB61A754640EA0C00E8
S315080007E05B084FEA3202B6EB020E75EB030E22BF28
S315080007F0B61A754640EA5C005B084FEA3202B6EB69
S31508000800020E75EB030E22BFB61A754640EA9C0027
S315080008105B084FEA3202B6EB020E75EB030E22BFF7
S31508000820B61A754640EADC0055EA060E18D04FEAB5
S31508000830051545EA16754FEA06164FEAC30343EA55
S3150800084052734FEAC2025FEA1C1CC0D111F4801F22
S315080008500BD141EA00014FF000004FF0004CB6E71B
S3150800086011F4801F04BF01430020B4F1FD0C88BFBA
S31508000870BCF5E06F3FF6AFAEB5EB030C04BFB6EBC5
S31508000880020C5FEA500C50F1000041EB045170BDB8
S315080008900EF0004E4EEA113114EB5C04C2BFD4EBE5
S315080008A00C0541EA045170BD41F480114FF0000E69
S315080008B0013C90E645EA060E8DE60CEA135594EAE5
S315080008C00C0F08BF95EA0C0F3FF43BAF94EA0C0FE8
S315080008D00AD150EA01347FF434AF95EA0C0F7FF45D
S315080008E025AF104619462CE795EA0C0F06D152EAB1
S315080008F003353FF4FDAE1046194622E750EA410695
S3150800090018BF52EA43067FF4C5AE50EA41047FF4A5
S315080009100DAF52EA43057FF4EBAE12E74FF0FF3C0A
S3150800092006E000BF4FF0010C02E000BF4FF0010CDB
S315080009304DF804CD4FEA410C7FEA6C5C4FEA430C54
S3150800094018BF7FEA6C5C1BD001B050EA410C0CBFA3
S3150800095052EA430C91EA030F02BF90EA020F002005
S31508000960704710F1000F91EA030F58BF994208BF6C
S3150800097090422CBFD8176FEAE37040F00100704729
S315080009804FEA410C7FEA6C5C02D150EA013C07D180
S315080009904FEA430C7FEA6C5CD6D152EA033CD3D0CB
S315080009A05DF8040B704700BF8446104662468C46C5
S315080009B01946634600E000BF01B5FFF7B7FF0028F8
S315080009C048BF10F1000F01BD4DF808EDFFF7F4FF21
S315080009D00CBF012000205DF808FB00BF4DF808EDAC
S315080009E0FFF7EAFF34BF012000205DF808FB00BFCF
S315080009F04DF808EDFFF7E0FF94BF012000205DF8F1
S31508000A0008FB00BF4DF808EDFFF7CEFF94BF0120A5
S31508000A1000205DF808FB00BF4DF808EDFFF7C4FF9E
S31508000A2034BF012000205DF808FB00BF4FEA410CE7
S31508000A307FEA6C5C02D150EA013C0AD14FEA430CCA
S31508000A407FEA6C5C02D152EA033C02D14FF0000007
S31508000A5070474FF0010070474FEA410212F5001245
S31508000A6015D211D56FF47873B3EB625212D94FEAE7
S31508000A70C12343F0004343EA505311F0004F23FAD1
S31508000A8002F018BF404270474FF00000704750EA26
S31508000A90013005D111F0004008BF6FF000407047E3
S31508000AA04FF00000704700BF4A0011D212F500123D
S31508000AB011D20DD56FF47873B3EB62520ED44FEAA8
S31508000AC0C12343F0004343EA505323FA02F0704728
S31508000AD04FF00000704750EA013002D14FF0FF3066
S31508000AE070474FF0000070474FEA4102B2F1E04309
S31508000AF024BFB3F5001CDCF1FE5C0DD901F0004CF7
S31508000B004FEAC0024CEA5070B2F1004F40EB830046
S31508000B1008BF20F00100704711F0804F21D113F172
S31508000B203872BCBF01F00040704741F480114FEAAB
S31508000B305252C2F11802C2F1200C10FA0CF320FA34
S31508000B4002F018BF40F001004FEAC1234FEAD32351
S31508000B5003FA0CFC40EA0C0023FA02F34FEA4303BB
S31508000B60CCE77FEA625307D150EA01331EBF4FF044
S31508000B70FE4040F44000704701F0004040F0FE405F
S31508000B8040F40000704700BF80F0004002E000BF5C
S31508000B9081F0004142001FBF5FEA410392EA030F5A
S31508000BA07FEA226C7FEA236C6AD04FEA1262D2EBA4
S31508000BB01363C1BFD218414048404140B8BF5B42A9
S31508000BC0192B88BF704710F0004F40F4000020F042
S31508000BD07F4018BF404211F0004F41F4000121F058
S31508000BE07F4118BF494292EA030F3FD0A2F10102A2
S31508000BF041FA03FC10EB0C00C3F1200301FA03F1E0
S31508000C0000F0004302D5494260EB4000B0F5000F02
S31508000C1013D3B0F1807F06D340084FEA310102F1C1
S31508000C200102FE2A51D2B1F1004F40EBC25008BF73
S31508000C3020F0010040EA03007047490040EB00003D
S31508000C4010F4000FA2F10102EDD1B0FA80FCACF16C
S31508000C50080CB2EB0C0200FA0CF0AABF00EBC2506B
S31508000C6052421843BCBFD0401843704792F0000F59
S31508000C7081F4000106BF80F400000132013BB5E7AC
S31508000C804FEA41037FEA226C18BF7FEA236C21D022
S31508000C9092EA030F04D092F0000F08BF0846704787
S31508000CA090EA010F1CBF0020704712F07F4F04D155
S31508000CB0400028BF40F00040704712F100723CBF68
S31508000CC000F50000704700F0004343F0FE4040F492
S31508000CD0000070477FEA226216BF08467FEA236350
S31508000CE00146420206BF5FEA412390EA010F40F43B
S31508000CF0800070474FF0000304E000BF10F0004387
S31508000D0048BF40425FEA000C08BF704743F096436D
S31508000D1001464FF000001CE050EA010208BF704788
S31508000D204FF000030AE000BF50EA010208BF70470F
S31508000D3011F0004302D5404261EB41015FEA010C24
S31508000D4002BF84460146002043F0B64308BFA3F11C
S31508000D508053A3F50003BCFA8CF2083AA3EBC253FE
S31508000D6010DB01FA02FC634400FA02FCC2F120021D
S31508000D70BCF1004F20FA02F243EB020008BF20F054
S31508000D800100704702F1200201FA02FCC2F12002BA
S31508000D9050EA4C0021FA02F243EB020008BF20EAAF
S31508000DA0DC7070474FF0FF0C1CEAD0521EBF1CEADD
S31508000DB0D15392EA0C0F93EA0C0F6FD01A4480EACB
S31508000DC0010C400218BF5FEA41211ED04FF00063B4
S31508000DD043EA501043EA5111A0FB01310CF00040E0
S31508000DE0B1F5000F3EBF490041EAD3715B0040EA06
S31508000DF0010062F17F02FD2A1DD8B3F1004F40EBD6
S31508000E00C25008BF20F00100704790F0000F0CF0A8
S31508000E10004C08BF49024CEA502040EA51207F3A6C
S31508000E20C2BFD2F1FF0340EAC250704740F4000047
S31508000E304FF00003013A5DDC12F1190FDCBF00F038
S31508000E4000407047C2F10002410021FA02F1C2F1E6
S31508000E50200200FA02FC5FEA310040F1000053EA82
S31508000E604C0308BF20EADC70704792F0000F00F0D0
S31508000E70004C02BF400010F4000F013AF9D040EAD6
S31508000E800C0093F0000F01F0004C02BF490011F46A
S31508000E90000F013BF9D041EA0C018FE70CEAD15368
S31508000EA092EA0C0F18BF93EA0C0F0AD030F0004CE8
S31508000EB018BF31F0004CD8D180EA010000F000409C
S31508000EC0704790F0000F17BF90F0004F084691F05A
S31508000ED0000F91F0004F14D092EA0C0F01D1420294
S31508000EE00FD193EA0C0F03D14B0218BF084608D15D
S31508000EF080EA010000F0004040F0FE4040F40000A7
S31508000F00704740F0FE4040F4400070474FF0FF0C39
S31508000F101CEAD0521EBF1CEAD15392EA0C0F93EA80
S31508000F200C0F69D0A2EB030280EA010C49024FEAD2
S31508000F30402037D04FF0805343EA111143EA10138B
S31508000F400CF000408B4238BF5B0042F17D024FF443
S31508000F50000C8B4224BF5B1A40EA0C00B3EB510F1E
S31508000F6024BFA3EB510340EA5C00B3EB910F24BF07
S31508000F70A3EB910340EA9C00B3EBD10F24BFA3EB8C
S31508000F80D10340EADC001B0118BF5FEA1C1CE0D154
S31508000F90FD2A3FF650AF8B4240EBC25008BF20F007
S31508000FA0010070470CF0004C4CEA50207F32C2BF5B
S31508000FB0D2F1FF0340EAC250704740F400004FF0F8
S31508000FC00003013A37E792F0000F00F0004C02BF29
S31508000FD0400010F4000F013AF9D040EA0C0093F0F3
S31508000FE0000F01F0004C02BF490011F4000F013B4D
S31508000FF0F9D041EA0C0195E70CEAD15392EA0C0FB5
S3150800100008D142027FF47DAF93EA0C0F7FF470AFEC
S31508001010084676E793EA0C0F04D14B023FF44CAF2F
S3150800102008466EE730F0004C18BF31F0004CCAD1C4
S3150800103030F000427FF45CAF31F000437FF43CAF00
S315080010405FE700BF4FF0FF3C06E000BF4FF0010C22
S3150800105002E000BF4FF0010C4DF804CD4FEA400204
S315080010604FEA41037FEA226C18BF7FEA236C11D04E
S3150800107001B052EA530C18BF90EA010F58BFB2EB01
S31508001080030088BFC81738BF6FEAE17018BF40F081
S31508001090010070477FEA226C02D15FEA402C05D135
S315080010A07FEA236CE4D15FEA412CE1D05DF8040BBA
S315080010B0704700BF844608466146FFE70FB5FFF74D
S315080010C0C9FF002848BF10F1000F0FBD4DF808ED05
S315080010D0FFF7F4FF0CBF012000205DF808FB00BFF6
S315080010E04DF808EDFFF7EAFF34BF012000205DF850
S315080010F008FB00BF4DF808EDFFF7E0FF94BF01209D
S3150800110000205DF808FB00BF4DF808EDFFF7D2FF99
S3150800111094BF012000205DF808FB00BF4DF808EDDC
S31508001120FFF7C8FF34BF012000205DF808FB00BFA9
S3150800113042000ED2B2F1FE4F0BD34FF09E03B3EB33
S31508001140126209D44FEA002343F0004323FA02F05F
S3150800115070474FF00000704712F1610F01D142024B
S3150800116002D14FF0FF3070474FF00000704700BFC4
S31508001170034A536823F4700343F48013536070479B
S3150800118000100140024B4FF400521A61704700BF2D
S3150800119000100140024B4FF000521A61704700BF21
S315080011A000100140074B1A6822F00F0242F00102B4
S315080011B01A601A6822F0F00242F010021A6003223E
S315080011C05A617047000C0140024A136943F0010353
S315080011D013617047000C0140024A536943F001034A
S315080011E053617047000C0140024B986800F00100FB
S315080011F0704700BF000C0140024A136943F002031E
S3150800120013617047000C0140024A536943F0020318
S3150800121053617047000C0140024B9868C0F34000C8
S31508001220704700BF000C01400F4AD36943F00053D2
S31508001230D3610E4B1A6842F001021A601A6842F42A
S3150800124080321A601A6822F004021A601A6822F4B8
S3150800125080221A601A6822F002021A601A6822F4BA
S3150800126000321A60704700BF001002400074004048
S31508001270B1F5805F0CD2012803D0022804D00020E3
S315080012807047044B99607047024B596101207047BB
S315080012900020704700740040012805D0022806BFC8
S315080012A0034B186B00207047014BD86A704700BF84
S315080012B0007400400000000008B50B49FFF772FDF6
S315080012C0FFF7C2F80022094BFFF740FA02460B4621
S315080012D003A1D1E90001FEF757FFFFF7BDFB08BDE3
S315080012E00000000000FC9F4000F07F4500003440ED
S315080012F038B505460C460B492046FFF705FF78B179
S3150800130009492046FFF7F6FE08B9002009E02046FD
S31508001310FFF7D2FF01462846FFF7AAFF012000E0A3
S31508001320002038BD000020C1000020410000000058
S3150800133008B5C0F5FF600730FFF774F80022084BC0
S31508001340FFF7DAF804A3D3E90023FFF7FFF9FFF75D
S31508001350CBFB08BDAFF300800000000000FEAF40E5
S315080013600000344008B5FFF797FFFFF7E1FF08BD17
S3150800137008B5054A936943F01C039361FFF7F8FE25
S31508001380FFF710FF08BD00BF0010024008B501F0C6
S31508001390CBF901F0B3FA08BD0EB4F0B588B007462C
S315080013A00DAB53F8045B0793002D0BDD00241B4E91
S315080013B0079B1A1D07921968304602F0FFF9013497
S315080013C0A542F5D13A461649684602F0ABF9134CE0
S315080013D06946204602F0F2F92046FEF7C9FE114B8F
S315080013E01B8823520A21204601F0BCFA05462046EE
S315080013F0FEF7BEFEA84205D0002008B0BDE8F040C2
S3150800140003B07047002525702046FEF7B1FE024658
S315080014102946204601F04AFB0120EEE7F0010020AC
S31508001420249A0008289A00080EB4F0B588B0074632
S315080014300DAB53F8045B0793002D0BDD00241D4EFE
S31508001440079B1A1D07921968304602F0B7F901344E
S31508001450A542F5D13846FEF7F7FF02460B46164970
S31508001460684602F05FF9134C6946204602F0A6F971
S315080014702046FEF77DFE114B1B8823520A21204683
S3150800148001F070FA05462046FEF772FEA84205D01E
S31508001490002008B0BDE8F04003B07047002525706D
S315080014A02046FEF765FE02462946204601F0FEFA6A
S315080014B00120EEE7F00100202C9A0008289A00087F
S315080014C00FB470B582B006AB53F8045B0193002DD8
S315080014D00BDD0024164E019B1A1D01921968304631
S315080014E002F06CF90134A542F5D1114C2046FEF7FD
S315080014F03FFE104B1B8823520A21204601F032FA80
S3150800150005462046FEF734FEA84205D0002002B064
S31508001510BDE8704004B07047002525702046FEF7E8
S3150800152027FE02462946204601F0C0FA0120EEE7CA
S31508001530F0010020289A000838B50F4C02460F49DA
S31508001540204602F0EFF80A21204601F00BFA05467C
S315080015502046FEF70DFEA84201D0002038BD002522
S3150800156025702046FEF704FE02462946204601F06D
S315080015709DFA0120F2E700BFF0010020349A000826
S3150800158008B50A2301F06CF90028D4BF0020012011
S3150800159008BD00002DE9F8438046154D00244FF09C
S315080015A0FF37DFF8509004E02746013423358A2CAC
S315080015B01AD02846FEF7DCFD02462946404602F0C8
S315080015C00CF90028F0D004EB8406C6EBC6064E4498
S315080015D03046FEF7CDFD02463146404602F0FDF89C
S315080015E0002808BF2746E0E73846BDE8F88300BF6D
S315080015F0AC7300088C86000808B500F0FBFB024BAC
S3150800160000221A6108BD00BF002C0140034B19686F
S315080016101A4613685B1A8342FBD370471C030020E3
S3150800162070B500F0F7FB00F0D9FB4FF07E55284661
S3150800163000F096FA06460146284600F015FB0B4CC4
S3150800164002463146204600F051FB2946204600F066
S315080016509BFB204600F08CFB204600F090FB022006
S31508001660FFF7D4FF00F0C0FB012070BD002C01403D
S3150800167038B5054600F0B2FB094C2946204600F06D
S3150800168083FB0546204600F073FB204600F077FBF7
S315080016900220FFF7BBFF00F0A7FB284638BD00BFB6
S315080016A0002C014008B5024800F056FB08BD00BFF3
S315080016B0002C014008B5024800F042FB08BD00BFF7
S315080016C0002C014010B5FFF7F5FF00242146012044
S315080016D0FFF70EFE21460220FFF70AFEFFF77CFD04
S315080016E0FFF792FD10BD000008B5024800F040FB68
S315080016F008BD00BF002C014008B5024800F0F2FA08
S3150800170008BD00BF002C0140024A1368013313606C
S31508001710704700BF1C030020034B19681A4613685C
S315080017205B1A8342FBD370471C03002008B5FFF7FA
S3150800173029FDC820FFF7F0FFFFF72CFDC820FFF7AB
S31508001740EBFFFFF71FFDC820FFF7E6FFFFF722FDB7
S31508001750C820FFF7E1FFFFF715FD4B20FFF7DCFF79
S31508001760FFF718FD4B20FFF7D7FFFFF70BFD4B20C0
S31508001770FFF7D2FFFFF70EFD4B20FFF7CDFFFFF770
S3150800178001FD4B20FFF7C8FFFFF704FD4B20FFF7CD
S31508001790C3FFFFF7F7FCFFF7F5FC08BDF0B5C5B0CA
S315080017A0BD4A136843F00103136013461A6812F022
S315080017B0020FFBD0B84A536823F00303536013465D
S315080017C05A6812F00C0FFBD1B34A136823F08073E2
S315080017D0136013461A6812F0007FFBD1AF4A1368EC
S315080017E023F0070343F001031360A2F58052136840
S315080017F043F48033136013461A6812F4003FFBD093
S31508001800A54BA74A5A601A6842F080721A601A688D
S3150800181012F0007FFBD0A04B5A6822F0030242F078
S3150800182002025A609F4AA04911605A6842F480022F
S315080018305A60DA6942F40002DA6100229B4B1A60A8
S315080018409B4B4BF67F3159609A49F02081F823006B
S315080018509A6007221A60FFF78BFDFFF7E1FEFFF794
S3150800186095FD00F0D7FAFFF7DFFCFFF72BFFFFF730
S315080018705DFF914C04F12306904D07E02046FFF7E3
S315080018805BFE00F0C1FA002840F04D81002104916A
S31508001890FC2205A801F00AF90A2000F079FF0028C1
S315080018A0EFD00A224FF4807104A8FFF769FE04A856
S315080018B0FFF770FE142800F2328101A353F820F0D6
S315080018C07D180008151900081B19000821190008B9
S315080018D02719000843190008491900084F19000874
S315080018E06B19000893190008BB190008CB190008E2
S315080018F0DB190008011A0008271A00083B1A000815
S31508001900611A0008911A0008D11A0008EB1A000893
S31508001910051B0008FFF7D6FEB3E7FFF755FCB0E74F
S31508001920FFF75AFCADE7FFF75FFC38B904F18C0204
S3150800193004F56D710220FFF7C3FDA2E704F1690201
S31508001940F6E7FFF759FC9CE7FFF75EFC99E7FFF718
S3150800195063FC38B904F18C0204F2D7310220FFF790
S31508001960AFFD8EE704F16902F6E703AA544904A815
S3150800197001F0F8FE03990120FFF7BAFC20B104F143
S31508001980AF00FFF7D9FD7CE704F14600FFF7D4FD69
S3150800199077E703AA4A4904A801F0E4FE039902205E
S315080019A0FFF7A6FC20B104F1AF00FFF7C5FD68E715
S315080019B004F14600FFF7C0FD63E70120FFF7D2FCFC
S315080019C0404A0121FFF730FD5BE70220FFF7CAFC1A
S315080019D03D4A0121FFF728FD53E703AA384904A821
S315080019E001F0C0FE0398FFF743FE20B104F1AF00F3
S315080019F0FFF7A2FD45E704F14600FFF79DFD40E726
S31508001A00FFF750FE38B104F1D20204F23551022034
S31508001A10FFF756FD35E704F1F50204F235510220C9
S31508001A20FFF74EFD2DE7FFF745FE04F58C7204F22D
S31508001A3035510220FFF744FD23E7FFF755FE38B17D
S31508001A4004F5AF7204F235510220FFF739FD18E7A5
S31508001A5004F2811204F235510220FFF731FD10E736
S31508001A601A4B986AD96A00F02BF90746FFF744FE25
S31508001A7058B904F18C0304F5D272009204F2355277
S31508001A8003213846FFF7D0FCFBE604F16903F2E7C9
S31508001A90FFF74CFEF5E600BF0010024000200240AA
S31508001AA00004110000000020006CDC021C0300206A
S31508001AB010E000E000ED00E0306E0008709A0008C3
S31508001AC03C9A0008449A00084C9A0008002C0140E9
S31508001AD01C4B1B681C4A126813441C4A10681C4A93
S31508001AE001211844FFF758FCCBE603AA194904A8B4
S31508001AF001F038FE0398FFF7DFFB174A0121FFF7CD
S31508001B004BFCBEE603AA294604A801F02BFE03985F
S31508001B10FFF70EFC114A0121FFF786FCB1E63046B5
S31508001B20FFF70AFDADE600F075F9FFF7C3FDFFF70D
S31508001B30C9FD04F5F57204F235510220FFF7C0FC21
S31508001B40A4E600BFE8F7FF1FECF7FF1FF0F7FF1F3B
S31508001B50549A00083C9A0008689A0008789A00087F
S31508001B60F8B50546FEF770FC06460F4634A3D3E9DA
S31508001B700023FEF747FF00285ED033A3D3E90023EE
S31508001B8030463946FEF72AFF041C18BF01242EA347
S31508001B90D3E9002330463946FEF734FF48B12CA373
S31508001BA0D3E9002330463946FEF718FF002818BF48
S31508001BB0092427A3D3E9002330463946FEF722FF36
S31508001BC048B125A3D3E9002330463946FEF706FF78
S31508001BD0002818BF632420A3D3E9002330463946DA
S31508001BE0FEF710FF48B14FF07E512846FFF778FA06
S31508001BF040F2E733002818BF1C464FF07E512846AE
S31508001C00FFF782FA40B116492846FFF769FA42F209
S31508001C100F73002818BF1C4611492846FFF774FAA7
S31508001C2040B110492846FFF765FA4FF6FF730028BA
S31508001C3018BF1C462046F8BD0024A8E7AFF300806D
S31508001C408DEDB5A0F7C6D03EF168E388B5F8043F38
S31508001C507B14AE47E17A843F9A9999999999B93F45
S31508001C60000020410000484270B504460E46124B5B
S31508001C701868FFF73FF82146FFF794F8FEF7E4FBEC
S31508001C8004460D463046FEF7BDFB00220B4BFEF719
S31508001C907DFA02460B4620462946FEF757FDFEF713
S31508001CA023FFFFF745FAFEF7ADFB0022034BFEF7CD
S31508001CB06BFAFEF7F9FE70BD000000200000F03F49
S31508001CC010B5013100FB0110FFF714F80446044B68
S31508001CD01868FFF70FF801462046FFF717F910BDF9
S31508001CE000000020006800F00100704710B40346A9
S31508001CF01048834214D09962D96841F00101D9602D
S31508001D00DA621A6842F081021A60012058611A687C
S31508001D1022F001021A605A6902435A6110BC7047E0
S31508001D20054CA06940F40060A06104484FF00074B7
S31508001D300460E0E7002C01400010024000E100E0EA
S31508001D40036823F00103036000234362006880F000
S31508001D50010000F00100704710B50446FFF7F0FFD8
S31508001D60236843F001032360206800F0010010BDDA
S31508001D7000234362406AB0FA80F04009704743691D
S31508001D8043F001034361704770B505460C460846A3
S31508001D90FEF75AFB0EA3D3E90023FEF733FE80B104
S31508001DA00D492046FFF7A6F968B12046FFF7D8FE89
S31508001DB0064601462046FFF757FFAE62E862012055
S31508001DC000E0002070BD0020FCE700BFAFF30080F4
S31508001DD0F168E388B5F8E43E00002041014B012292
S31508001DE01A707047F0020020014B00221A707047E3
S31508001DF0F0020020034B1B7813B9024B01225A70DC
S31508001E00704700BFF0020020014B5878704700BFAA
S31508001E10F0020020014B00225A707047F0020020A1
S31508001E20074A4FF41653136008239371002313715E
S31508001E305371044A1380044A012111705370704784
S31508001E402405002020030020F402002000F00F03E0
S31508001E504BF68F7248F6BF71984218BF0A469842E9
S31508001E600CBF4FF48050102003F1805303F5B8538C
S31508001E709B001968484010401860704710F0800FA2
S31508001E8017D100F0070000F1805000F5B850800027
S31508001E900368C3F30133012B00D07047036823F4AA
S31508001EA0E04323F070031B041B0C43F40053036048
S31508001EB0704700F0070000F1805000F5B850800028
S31508001EC00368C3F30113012BE7D1036823F4E04346
S31508001ED023F070031B041B0C43F030030360DCE79C
S31508001EE010B50446FFF7B2FF44F08000FFF7AEFFD7
S31508001EF010BD00F1805000F5B8508000036883F4E7
S31508001F00405323F4804323F070031B041B0C036027
S31508001F10704700F1805000F5B8508000036883F0E0
S31508001F20300323F4E04323F040031B041B0C036037
S31508001F307047000030B4274801230360264A00236F
S31508001F4093759360D36013610360244A9370D370CA
S31508001F5053701370224A13605360402191604FF406
S31508001F600441D1601032802414605360C025956006
S31508001F70D16010324FF48075156051604FF4A0752A
S31508001F809560D16010324FF4C07111604FF48051E2
S31508001F9051604FF492759560D160A2F5E0624FF4F6
S31508001FA0C8711160503A43F2202111600432212190
S31508001FB01160043243F202011160043243F22361D4
S31508001FC01160383213604FF41F430360054B1C60E1
S31508001FD030BC7047405C00402C050020F40200200D
S31508001FE0206300404C5C004082B00190019B33B1F5
S31508001FF000BF019B013B0193019B002BF8D102B066
S315080020007047000038B5124BDC68C4F309048C42EB
S31508002010A8BF0C46B4B1A3F528731968002C11DDC6
S315080020200170090A0246013820440A4D012307E0D7
S3150800203002F8011F013B11BF090A2968043502236A
S315080020408242F5D10020FFF754FF204638BD00BF75
S31508002050206300408460004070B5402907DD4026B3
S31508002060134B5E600546002312491C460BE0104BD5
S31508002070596019B1002912DD0E46F3E70E4612E043
S315080020802A1AB2420DDA15F8012B9A40144308337E
S31508002090082BF5DD0C60043100242346F0E70E46D4
S315080020A001E003B10C600020FFF733FF304670BD36
S315080020B0206300400060004008B500210148FFF792
S315080020C0CBFF08BD6C990008034B1B7813F0600F13
S315080020D00CBF0120002070472C050020044B1878FF
S315080020E000F06000202814BF00200120704700BFC0
S315080020F02C05002038B50D4B93F90030002B00DB7A
S3150800210038BD0A4CA1682569E3689942A8BF1946F3
S315080021102846FFF7A1FF05442561A3681B1A01D4C9
S31508002120A360EDE7014B00229A60E9E72C05002041
S3150800213008B5164B5A881B78012B05D02BB1022BF4
S3150800214008D00020FFF7CCFE08BD012AFCD10F4BB2
S315080021501875F9E7B2B90D4B9B88812B07D0832BED
S3150800216005D0022B03D00020FFF7BAFEECE728B112
S315080021701846FFF76BFEFFF79FFFE5E71846FFF7E0
S315080021807DFEF8E70020FFF7ABFEDDE72C05002013
S3150800219000B583B0284A1378918800228DF8042068
S315080021A08DF80520812B16D0822B20D0802B03D0CA
S315080021B00020FFF795FE17E01F4B1B7D13B1022386
S315080021C08DF804301C4B5B7D2BB19DF8043043F031
S315080021D001038DF80430184B4022DA6002229A6017
S315080021E001AA1A61FFF786FF03B05DF804FB81298F
S315080021F010D0832917D0022903D00020FFF770FEDC
S31508002200F2E70E4B1B68C3F30133012BE3D18DF8BC
S315080022100430E0E70A4B1B68C3F30113012BDAD13C
S315080022208DF80430D7E7074B1B68C3F30113012B5E
S31508002230D1D18DF80430CEE72C050020085C00408B
S31508002240045C00400C5C004008B51A4B5A88130A17
S31508002250022B29D0032B13D0012B03D00020FFF724
S315080022603FFE0CE014491220124BDA888242A8BFBE
S3150800227002464020D8609A601961FFF73BFF08BD07
S31508002280D2B2032A0CD8DFE802F0021205080B497D
S315080022900420E9E70A492020E6E70A491A20E3E785
S315080022A00020FFF71DFEEAE707494320DCE7074958
S315080022B01020D9E72C050020B4990008049A0008D4
S315080022C0C8990008E899000870990008089A000853
S315080022D008B5FFF7F1FE024B9A78024B1A7108BD52
S315080022E02C050020F402002008B5094B5B8853B181
S315080022F0FFF796FD064B5A889A75064B0122DA7047
S31508002300FFF7DAFE03E0024A9375024AD37008BD66
S315080023102C050020F402002008B507210248FFF723
S3150800232071FEFFF7C9FE08BD2405002008B5044B59
S315080023305B881B0A034A1380FFF7BEFE08BD00BF71
S315080023402C0500202003002008B5054B4022DA6042
S3150800235007229A60034A1A61FFF7CCFE08BD00BF40
S315080023602C0500202405002008B508212B48FFF776
S3150800237049FEFFF7A9FE002837D0284B5B780B2BC0
S3150800238033D8DFE803F01C09320D32062C32112F40
S315080023901F27FFF79DFF36E00020FFF7C9FE32E052
S315080023A00120FFF7C5FE2EE01C4B4022DA60012211
S315080023B09A6003F116021A61FFF79CFE23E0FFF705
S315080023C0E7FE20E0154B01229A60154A1A61FFF7CD
S315080023D091FE18E0FFF724FDFFF76EFE13E0FFF706
S315080023E033FF10E0FFF780FF0DE0FFF777FE38B107
S315080023F00A4B5B78212B0AD0222B0BD0202B03D03B
S315080024000020FFF723FD08BDFFF756FEFBE7FFF7A1
S315080024109BFFF8E7FFF78AFFF5E700BF2C050020CA
S315080024206C99000800B591B0FFF74EFE58B9FFF752
S3150800243055FE90B10A4B5B78202B0BD1FFF76CFF4A
S31508002440FFF73AFE03E040216846FFF7DBFD11B0CF
S315080024505DF804FBFFF730FEF9E7FFF72DFEF6E718
S315080024602C05002008B5FFF72FFE88B1094B5B78CD
S31508002470062B04D0212B09D0FFF71EFE08E0054BDA
S315080024809B68002B04DDFFF735FE01E0FFF714FE1D
S3150800249008BD00BF2C050020F8B51F4B9868DB68FF
S315080024A0C01A48BF00F58070402824DC31D0C0F33C
S315080024B0090343F40443194A5360174B01225A701F
S315080024C008BB14E0013810D0EB68FB5CDBB2EA68A5
S315080024D00132D2B2EA608B401C4308310829F1DD8B
S315080024E03460043600242146ECE701B1346001204B
S315080024F0FFF70FFDF8BD402040F40443074A536038
S31508002500054B01225A70064E00242146024D054FFE
S31508002510DAE73E20F0E700BFF4020020306300400F
S31508002520006100402403002008B5064BDA689B6862
S315080025309A4202D0FFF7B0FF08BD024B00225A703C
S31508002540FAE700BFF4020020F8B5224BDE68C6F3AE
S315080025500906214A136952699B1A48BF03F5807315
S31508002560C3F58075AE4214DA1C4B1C683EB3E0B264
S31508002570194A13691A49C85413690133DBB213613E
S31508002580240A3146DFF85CC001221348DFF850E020
S3150800259013E0114B00221A70F8BDE3B207690EF872
S315080025A0073003690133DBB20361013A11BF240A1C
S315080025B0DCF800400CF1040C02220139EDD1AB1B0A
S315080025C03F2B03DC044B00221A70E5E70220FFF7D5
S315080025D090FCE1E740630040F4020020806200407E
S315080025E0240400208462004070B54B4B1B6813F42A
S315080025F0804F03D0484A6FF48041116013F4005F9E
S3150800260003D0454A6FF40051116013F4805F0BD074
S3150800261042490A6822F00C020A603F4A6FF4805168
S3150800262011603F4A0021917013F4006F0BD03A4AAB
S315080026306FF40061116039490A6842F00C020A60B9
S31508002640374A0121917013F4806F3AD113F4007F51
S315080026500CD0314A6FF400711160314A9169013129
S315080026609161927812B12E4A0021917013F4807FFD
S3150800267009D0294A6FF480711160294A927812B9F3
S31508002680274A0121917013F4004F20D0224A6FF493
S315080026900041116003F00F0404F1805202F5B852AC
S315080026A09200116888B213F0100F19D040F68F7394
S315080026B00B4013607CB911F4006F09D0FFF754FE84
S315080026C005E0154B6FF480621A60FFF733FC70BDA6
S315080026D0FFF7A8FEFBE7022CF9D1FFF735FFF6E76F
S315080026E00F4B1B7963B921F4E14121F0700109040C
S315080026F0090C11606CB1012CE9D1FFF715FFE6E76B
S31508002700074D2B7943F08003064E336000232B7167
S31508002710E9E7FFF7A7FEDAE7445C0040405C0040C3
S31508002720F40200204C5C004038B5124B00201249D8
S315080027301A1D186013468A42FAD100240F4B9C755D
S315080027400F4BDC709C70FFF76BFB0E4D03232B6061
S315080027506420FFF749FC01232B600B4B1C604FF4E8
S315080027607A70FFF741FC094B4FF480121A60FFF7A5
S31508002770E1FB38BD00600040006400402C050020E5
S31508002780F4020020405C0040445C004000E100E0A8
S315080027900F4A53691269934215D00E4AD25CD2B2D7
S315080027A0904212D010B40A490A4C0133DBB20A69C6
S315080027B09A4205D0E25CD2B28242F6D1012000E00C
S315080027C0002010BC7047002070470120704700BFEA
S315080027D0F40200202404002010B51D4B5A691B6919
S315080027E09A4231D01A4A53691A49CB5C0370536925
S315080027F00133DBB25361137803F0FF042BBB9378E4
S3150800280003F0FF040BBBD37803F0FF040BB90124D4
S315080028101BE0114B4FF480121A600D4A1369526976
S315080028209B1A48BF03F58073C3F58073402B04DCFD
S315080028300A4B4FF480121A6007E0054B01221A7002
S315080028400220FFF756FBF3E70024204610BD00BF21
S31508002850F40200202404002080E100E000E100E00A
S315080028602DE9F04782B0824688461D469146002AE1
S315080028703CD001F1FF38204B9E69B8F1000F24DDEA
S3150800288000271D4C626923699A4220D1E37893B1E7
S31508002890A37883B9A3699B1B9D420CD230BF62699A
S315080028A023699A4213D1E3782BB1A3781BB9A3699C
S315080028B09B1BAB42F2D8B9F1000F02D000230AF8ED
S315080028C00730384602B0BDE8F0870027F6E70DF175
S315080028D00700FFF781FF30B19DF807300AF8073087
S315080028E001374B45E7D04745CCDBE4E7024B9E6909
S315080028F00029C5DC0027E4E7F4020020054BDB7855
S3150800290033B1044B987880F0010000F0010070475D
S315080029100020FAE7F40200200E4A93680133DBB27E
S31508002920D2689A4214D010B50A4A91680A4C605483
S315080029309360537803F0FF0003B110BD4FF4801481
S31508002940064B1C60FFF7A8FD054B1C600120F4E749
S3150800295000207047F40200202403002080E100E0F4
S3150800296000E100E02DE9F04107460E46174B9D6948
S315080029704FF000081C463B78E3B1E378D3B1A3785F
S31508002980C3B9A368E2680133DBB2934215D1A369E0
S315080029905B1B9E420ED330BFE3785BB1A3784BB97D
S315080029A0A368E2680133DBB2934206D1A3695B1BD5
S315080029B0B342F0D94046BDE8F0813878FFF7ACFF5E
S315080029C00028D8D0013708F10108D4E7F40200201E
S315080029D00D4885460D480E490E4A002302E0D45894
S315080029E0C4500433C4188C42F9D30B4A0B4C002349
S315080029F001E013600432A242FBD3AFF3008000F07B
S31508002A0031F8FEF7CBFEFEE70000012000000020AB
S31508002A10D4010020B49D0008D401002054050020EC
S31508002A20FEE7000008B50A4B1B6843B1084B1B6854
S31508002A3018446B46984206D8054B186008BD044BE7
S31508002A40044A1A60F2E700F007F80C230360F5E77A
S31508002A501003002058050020014B1868704700BF76
S31508002A600400002070B500250C4E0D4CA41BA410C4
S31508002A70A54209D104F0D0F900250A4E0A4CA41B38
S31508002A80A410A54205D170BD56F8253098470135E2
S31508002A90EEE756F8253098470135F2E7AC9D000871
S31508002AA0AC9D0008AC9D0008B09D00080346024492
S31508002AB0934200D1704703F8011BF9E7002B2DE973
S31508002AC0F0471E46BBBF03F100431E4600232D23D5
S31508002AD088B0149FDDE9121A27F02007462F1446FE
S31508002AE0109D0B7004D0452F00D10135022300E05C
S31508002AF0032307AA049206AACDE902A2CDE9003566
S31508002B002246334601F0DCFD472F804602D1119B51
S31508002B10DB0726D5462F08EB050911D198F80030B2
S31508002B20302B0AD10022002320463146FDF74CFF00
S31508002B3018B9C5F10105CAF80050DAF80030994409
S31508002B400022002320463146FDF73EFF38B93022E1
S31508002B50079B4B4505D2591C07911A70F8E7CDF823
S31508002B601C904046079B159AA3EB0803136008B010
S31508002B70BDE8F087F7B50029B4BF2D232B230446FB
S31508002B80B8BF4942092904F8022B437021DD0DF12B
S31508002B9007031F460A2691FBF6F506FB1511092DB4
S31508002BA001F1300103F8011C03F1FF32294609DC63
S31508002BB03031023B02F8011CBB42224604D3101AEC
S31508002BC003B0F0BD1346E6E713F8012B04F8012B12
S31508002BD0F2E7302319448370021DC170EFE7000045
S31508002BE02DE9F04F91B00C461A9F93461E460546AE
S31508002BF002F056FE036818460993FDF7B9FA002352
S31508002C000E933B680A90073323F0070303F1080283
S31508002C1094F81880D4F800A03A60D3E90023C4E9F0
S31508002C201223D4E9127929F000430B934FF0FF32AF
S31508002C30A64B38460B99FDF7F9FE68BB4FF0FF32F5
S31508002C40A24B38460B99FDF7D3FE28BB002200237A
S31508002C5038464946FDF7C2FE10B12D2384F84330A5
S31508002C609B4F9C4BB8F1470F98BF1F4603234FF065
S31508002C70000923612AF00403236000965B460FAA25
S31508002C802146284600F0E2F9013040F090804FF0E6
S31508002C90FF3011B0BDE8F08F3A464B4638464946F4
S31508002CA0FDF7C4FE10B18C4F8C4BDBE763684AF422
S31508002CB08062591C0DA80EA940D1062363604FF007
S31508002CC0000C0DF13303CDE9012363682260CDE9D9
S31508002CD0030800933A464B46CDE9051C2846FFF7FC
S31508002CE0EDFE08F0DF03472B074609D10D9BD81CDC
S31508002CF002DB6268934247DDA8F102085FFA88F8AA
S31508002D00B8F1650F0D9924D80139424604F15000EF
S31508002D100D91FFF72FFF0E9A81461318012A23619A
S31508002D2002DC2268D10701D5013323619DF83330CF
S31508002D30002BA2D02D2384F843309EE7B8F1670F05
S31508002D4000F06E81B8F1470FB9D1002BB7D1012336
S31508002D50B4E7B8F1660F19D1002963680CDD216163
S31508002D6013B92268D20702D501330B4423610D9BA0
S31508002D704FF00009A365D9E713B92268D00701D532
S31508002D800233F3E70123F1E74FF06708DDE90D3277
S31508002D90934205DB22682361D107E8D50133E5E7CD
S31508002DA0002BCCBF0123C3F102031344DEE72368DB
S31508002DB05A0507D423693A4659462846B04701308A
S31508002DC029D164E7B8F1650F40F2D780D4E912013A
S31508002DD000220023FDF7F8FD88B30123404A59462F
S31508002DE02846B04701303FF452AFDDE90D239A4239
S31508002DF002DB2368D8070ED5DDE90923594628469C
S31508002E00B04701303FF443AF002704F11A080E9B80
S31508002E10013BBB4209DC23689F0700F1FD80E0689F
S31508002E200F9B9842B8BF184633E7012342465946D6
S31508002E302846B04701303FF42AAF0137E7E70D9B34
S31508002E40002B2BDC0123264A59462846B047013079
S31508002E503FF41DAF0D9B23B90E9B13B92368D90701
S31508002E60D9D5DDE9092359462846B04701303FF44C
S31508002E700EAF4FF0000804F11A090D9B5B4243455B
S31508002E8001DC0E9B97E701234A4659462846B04778
S31508002E9001303FF4FCAE08F10108EEE70E9AA36D87
S31508002EA09A42A8BF1A46002A904607DD1346594695
S31508002EB03A462846B04701303FF4E9AE04F11A0312
S31508002EC04FF0000A28EAE8780B9315E0FFFFEF7F3A
S31508002ED0849A0008809A00088C9A0008889A000844
S31508002EE0439C000801230B9A59462846B0470130EF
S31508002EF03FF4CDAE0AF1010AD4F85890A9EB0803BD
S31508002F005345EFDCDDE90D239A424F4414DB236871
S31508002F10DA0711D40E9B0D99A3EB0902A3EB01095D
S31508002F209145A8BF9146B9F1000F0DDC002729EAA3
S31508002F30E97904F11A0818E0DDE909235946284613
S31508002F40B0470130E6D1A2E64B463A4659462846EE
S31508002F50B0470130EAD19AE6012342465946284647
S31508002F60B04701303FF493AE0137DDE90D239B1AD4
S31508002F70A3EB0903BB42EFDC4DE70E9A012A01DCFD
S31508002F80DB0738D501233A4659462846B04701306B
S31508002F903FF47DAEDDE9092359462846B04701309E
S31508002FA007F101073FF473AED4E912010E9B002224
S31508002FB003F1FF380023FDF707FDC0B943463A463B
S31508002FC059462846B04701300DD160E601234246EE
S31508002FD059462846B04701303FF459AE01370E9B93
S31508002FE0013BBB42F2DC4B4604F15002E4E6002703
S31508002FF004F11A08F3E70123E1E70123424659469B
S315080030002846B04701303FF442AE0137E3680F9ACD
S315080030109B1ABB42F1DC02E7002704F11908F5E721
S31508003020002B3FF494AE4FF0000CCDE9051C0DF1D2
S3150800303033012260CDE90308CDE9012100933A4620
S315080030404B462846FFF73AFD07464FE62DE9F04777
S3150800305091461F468A680B6906469342B8BF1346CF
S31508003060C9F8003091F843200C46DDF8208012B1EB
S315080030700133C9F800302368990642BFD9F80030F1
S315080030800233C9F80030256815F0060507D104F1A2
S31508003090190AE368D9F800209B1AAB4229DC94F890
S315080030A043302268003318BF012392062ED404F158
S315080030B0430239463046C047013021D02368E568C7
S315080030C003F00603042B18BF0025D9F800204FF09B
S315080030D0000908BFAD1AA368226908BF25EAE57585
S315080030E09342C4BF9B1AED181A344D451AD10020D5
S315080030F008E00123524639463046C047013003D11D
S315080031004FF0FF30BDE8F0870135C2E73020E118FF
S3150800311081F843005A1C94F845102244023382F879
S315080031204310C4E70123224639463046C0470130DA
S31508003130E6D009F10109D8E72DE9F04301F1430C7E
S315080031400C46097E85B06E291746064698460C9A9F
S3150800315000F0B38022D8632936D00AD8002900F0B7
S31508003160B980582900F0838004F1420584F842109A
S3150800317032E0642901D06929F6D12068136805066A
S3150800318003F104012AD51B681160002B03DA2D22EE
S315080031905B4284F843206F480A2239E0732900F01D
S315080031A09D8008D86F2920D07029DDD1236843F087
S315080031B02003236003E0752917D07829D4D1782312
S315080031C0654884F8453055E0136804F14205191D31
S315080031D01B68116084F8423001238CE01B6810F0EC
S315080031E0400F116018BF1BB2CFE713682568181D7A
S315080031F01060280601D51B6802E06806FBD51B8807
S315080032006F2914BF0A2208225248002184F8431065
S315080032106568002DA560C0F29580216821F004013B
S315080032202160002B3DD1002D40F08E806546082A8E
S315080032300BD12368DB0708D5236962689A42DEBF8B
S31508003240302305F8013C05F1FF35ACEB0503236196
S31508003250CDF800803B4603AA21463046FFF7F6FE26
S3150800326001304DD14FF0FF3005B0BDE8F083394845
S3150800327084F84510136821681D1D1B6815600A0629
S315080032800BD5CA0744BF41F0200121601BB922684B
S3150800329022F0200222601022B7E74D0648BF9BB2F3
S315080032A0EFE76546B3FBF2F102FB1133C35C05F8A1
S315080032B0013D0B460029F5D1B9E713682568181DA5
S315080032C06169106028061B6801D5196002E06A0664
S315080032D0FBD51980002365462361B9E71368191DD4
S315080032E011601D6862680021284602F001FB08B1DA
S315080032F0401B606063682361002384F84330A7E7B6
S3150800330023692A4639463046C0470130AAD0236881
S315080033109B0713D4E068039B9842B8BF1846A3E7F7
S3150800332001234A4639463046C04701309AD001350E
S31508003330E368039A9B1AAB42F2DCEBE7002504F13B
S315080033401909F5E7002BACD1037804F1420584F896
S3150800335042306CE7909A0008A19A00082DE9F04FD0
S315080033609A468B6816465A1EB2F5AE7F88BF6FF42A
S31508003370AE7287B085BF9B180193002340F25D1398
S3150800338088464FF0000B8CBF8B6001930B6807468D
S3150800339043F4F06348F81C3B0C4645465A46D94662
S315080033A0CDE903BBCDF808B0A16881B133681B78B5
S315080033B0492B71D04DD8392B40D8312B80F08880D5
S315080033C02D2B00F0908015D82B2B00F08C80B9F1AE
S315080033D0000F03D0236823F480732360013A012A7F
S315080033E000F2EA80454500F2DC800126304607B047
S315080033F0BDE8F08F2E2B00F09F80302BE7D1206898
S3150800340010F4807F64D0019B20F08000206009F1D1
S3150800341001091BB1013B01310193A160A368013B7E
S31508003420A3602369013323617368013B002B736032
S3150800343040F3AC80336801333360B5E7452B00F0C1
S315080034408580462B6AD0412BC1D1012ABFD10222E1
S3150800345046E0652B7AD018D8542B66D011D84E2B57
S31508003460B5D1002A46D1B9F1000F45D1216801F43A
S31508003470E060B0F5E06F3FD121F4F06121600122F0
S315080034802EE0592B1ED0612BDEE76E2BE9D015D81E
S31508003490662B43D0692B9AD1BBF1000F38D1B9F10D
S315080034A0000F97D1216801F4E060B0F5E06F95D17F
S315080034B021F4F06121604FF0010B11E0742B34D038
S315080034C0792B84D1BBF1070F81D14FF0080B07E0A8
S315080034D012EB0B0F7FF47BAF216821F4C0712160DA
S315080034E02B7001359AE7216808067FF570AF21F041
S315080034F08001F4E7022A47D0BBF1010F03D0BBF1E4
S31508003500040F7FF464AF0BF1010B5FFA8BFBE7E75F
S31508003510BBF1030FF7D0BBF1050FF2E7BBF1020FC2
S315080035207FF455AF4FF0030BDAE7BBF1060F7FF4D4
S315080035304EAF4FF0070BD3E7216888057FF547AFF5
S3150800354021F420712160CDF80890C9E7216801F4BB
S31508003550A060B0F5806F06D048057FF538AFB9F1A1
S31508003560000F3FF43BAF880558BF029821F4F0617D
S3150800357058BFA9EB000041F4C07158BFCDE9030557
S3150800358021604FF00009ABE70322A9E7D4F88031A0
S315080035903146384605929847059A00283FF404AF05
S315080035A015E7D4F87C31324615F8011D3846984798
S315080035B02369013B236115E70BF1FF33062B0AD874
S315080035C0BBF1020F67D9ABF1030B5FFA8BFBA5EBD7
S315080035D00B0B5D454AD12368DA051FD55B0567D411
S315080035E015F8011C2369652903F1FF3305F1FF3B33
S315080035F023610DD045290BD0D4F87C3132463846A4
S315080036009847236915F8021C013BA5F1020B2361B3
S31508003610D4F87C313246384698475D46266816F017
S31508003620100676D12E70236803F4C063B3F5806F55
S3150800363041D1029BA9EB03035A42002B48D14146CC
S315080036400022384600F010FF2568804615F0020F64
S315080036508946DAF8003046D01A1DCAF800201B68D9
S31508003660C3E90089E3680133E360BFE6D4F87C3137
S31508003670324615F8011D384698472369013B2361F0
S31508003680A7E7D4F87C31324615F8011D3846984725
S315080036902369013B23614545F3D8A6E6D4F87C3176
S315080036A0324615F8011D384698472369013B2361C0
S315080036B04545F3D899E6039B002BC0D004990A2305
S315080036C032460131384600F05BFF039B049DC21A5F
S315080036D004F26F139D4228BF04F5B7750E492846B4
S315080036E000F020F8ABE71F1D15F00405CAF80070B6
S315080036F0B5D11F6802460B46FDF798F920B1284652
S3150800370000F00CF83860ADE740464946FDF7ECF99D
S31508003710F8E700266AE600BFB29A00080048704734
S315080037200000C07F0EB46FF0004100B59CB01DAB21
S3150800373002900690079104910848094953F8042B0A
S315080037400591006802A9019302F0F2FD0022029B8E
S315080037501A701CB05DF804EB03B070470400002033
S315080037600802FFFF0EB44FF4017230B59CB01FACCF
S3150800377054F8045BADF8142002900690FCF7F8FCA8
S315080037800B4B03900B9300230F9314934FF6FF7381
S3150800379007900848ADF816302A46234602A900685D
S315080037A0019402F017FF1CB0BDE8304003B0704723
S315080037B0B93700080400002000207047034610B5FA
S315080037C01A785C1C3AB9013B11F8012B03F8012F52
S315080037D0002AF9D110BD2346F2E72DE9F041064645
S315080037E00F4600EB0208B04519D016F8014B02F057
S315080037F047F82044437817F8015B03F00303012BCD
S3150800380008BF203402F03CF82844427802F003024C
S31508003810012A08BF2035601B02D1002DE3D1002004
S31508003820BDE8F0812DE9F0410F46904602F044FBD1
S3150800383004460D46B8F1000F11D0C7F30A53C3F179
S315080038406B03002B0BDD00241B0503F17F5505F5E3
S31508003850401522462B46FCF74FFE04460D462046E9
S315080038602946BDE8F08100002DE9F04F1F460023E8
S31508003870A1B0834638460E4617921C9302F00EF8FE
S3150800388080460068FCF774FC4FF0000904464FF0C8
S31508003890000A1B961B9B1A780D2A32D8092A36D29B
S315080038A0002A3ED000230D931B9D2B78302B40F029
S315080038B0AC806B78582B01D0782B67D10D9B02977B
S315080038C001931CAB0093894A1DAB1BA9584601F00E
S315080038D0FBFC10F00704064605D0062C2BD1002366
S315080038E001351B950D93179B002B40F0A6850D9B64
S315080038F0E3B14A460AF100431046194621B0BDE82D
S31508003900F08F2B2A15D02D2A04D0202ACAD10133AC
S315080039101B93BFE701220D925A1C1B925B78002B62
S31508003920C2D1179B1B96002B40F085854A46534605
S31508003930E2E70022EFE71C9A3AB135211EA802F009
S31508003940AEFB1C99584602F020F8013C042C06D818
S31508003950DFE804F00A0314170A00DDE91E9A3107A6
S31508003960C1D54AF0004ABEE71D9ADDE91E9302F268
S31508003970334223F4801343EA025AF0E7DFF870A1D2
S31508003980EDE76FF0004A4FF0FF39E8E71B9B5A1C3A
S315080039901B925B78302BF9D0002BA4D0012300258D
S315080039A00A2207931B9B0695089304951B9807788C
S315080039B0A7F13003D9B2092929D92246D8F8001027
S315080039C003F0F1F8002831D000203B460246049C5B
S315080039D00590652B01D0452B14D124B910B9079B46
S315080039E0002B9ED000241B9E731C1B9373782B2BD5
S315080039F078D02D2B70D04FF0000CA3F13007092F8B
S31508003A007CD91B964FF0000E9AE00023C7E704996D
S31508003A1001300829D7BF069902FB053502FB013399
S31508003A200693049B1B9001330493BFE71B9B1A194B
S31508003A301B92049A1B5D002A37D00246049CA3F108
S31508003A403001092913D901210591C2E71B9B0130D1
S31508003A505A1C1B925B78302BF8D0A3F13102082A46
S31508003A6000F2F0841B9A0892024600200446B3F13D
S31508003A70300E00F1010112D00A440A27214600EB54
S31508003A80040C8C4513D12118082904F101040444B7
S31508003A9019DC0A21069B01FB03E3069300211B9B05
S31508003AA0581C1B905B780846C9E70498D3E7082991
S31508003AB001F1010103DC069B7B430693E1E710292C
S31508003AC0D8BF7D43DDE7102CDCBF0A2101FB05E5E5
S31508003AD0E4E70123059381E74FF0010CB31C1B9320
S31508003AE0B3788AE74FF0000CF8E700BFB89A0008E9
S31508003AF00000F07F1B9B5F1C1B975B78302BF9D06F
S31508003B00A3F13107082F3FF67DAFA3F1300E1B9BBB
S31508003B1009931B9B5F1C1B975B78A3F13008B8F1D0
S31508003B20090F37D909997F1A082F44F61F6737DC1A
S31508003B30BE45A8BFBE46BCF1000F01D0CEF1000EAF
S31508003B40002C51D100287FF4CEAE079A002A7FF4C4
S31508003B50CAAE059A002A7FF4E4AE4E2B27D021DCA4
S31508003B60492B7FF4DEAEA4491BA801F0E1FD00282D
S31508003B703FF4D7AE1B9BA149013B1BA81B9301F041
S31508003B80D7FD10B91B9B01331B93DFF884A24FF0B6
S31508003B900009A8E60A2101FB0E3EAEF1300EB8E791
S31508003BA0BE46C8E7692BDED06E2B7FF4BAAE9449C1
S31508003BB01BA801F0BDFD00283FF4B3AE1B9B1B7884
S31508003BC0282B0ED11EAA8F491BA801F0C5FD052872
S31508003BD007D11F9BDDF8789043F0FF4A4AF4E00AC4
S31508003BE081E6DFF834A2D2E7AEEB02030793049B23
S31508003BF00698002B08BF2346102C0493A046A8BF9E
S31508003C004FF01008FCF7FEFB092C81468A4613DCA8
S31508003C10079B002B3FF467AE079B7EDD162B65DC02
S31508003C20794A02EBC30E4A46DEE900015346FCF721
S31508003C3063FC81468A4656E6734B03EBC80353E991
S31508003C401223FCF759FC064628460F46FCF7DAFB12
S31508003C5002460B4630463946FCF798FA0F2C814641
S31508003C608A46D5DD079BA4EB08089844B8F1000FEF
S31508003C7040F39A8018F00F030AD063494A4601EBCD
S31508003C80C301D1E900015346FCF736FC81468A4652
S31508003C9038F00F0877D0B8F59A7F4BDD4FF000085B
S31508003CA0CDF81080CDF82080CDF8188022234FF06B
S31508003CB00009DFF85CA1CBF80030089B002B3FF425
S31508003CC012AE1C99584601F060FE0699584601F056
S31508003CD05CFE0499584601F058FE0899584601F0CA
S31508003CE054FE4146584601F050FEFCE5079AC4F1D9
S31508003CF025039342B6DB444DC4F10F0405EBC4011A
S31508003D004A46D1E900015346FCF7F6FB079B1C1B04
S31508003D1005EBC405D5E9002389E713F1160FA1DBE6
S31508003D20394A4846A2EBC302D2E900235146FCF7BA
S31508003D300DFD7EE70023484651461D46334E4FEAA1
S31508003D402818B8F1010F21DC0BB181468A462F4BA2
S31508003D50AAF1547A03EBC5054A46D5E9000153464C
S31508003D60FCF7CAFB2A4B0A460B402A4981468B4276
S31508003D7094D8A1F580118B4286BF4FF0FF39DFF842
S31508003D809CA002F1547A002305937BE018F0010FFA
S31508003D9006D006EBC503D3E90023FCF7ADFB0123E8
S31508003DA001354FEA6808CCE7EDD0C8F1000818F0ED
S31508003DB00F020AD0144B484603EBC2035146D3E917
S31508003DC00023FCF7C3FC81468A465FEA2818DAD046
S31508003DD0B8F11F0F24DD4FF00008CDF81080CDF89C
S31508003DE02080CDF8188022234FF000094FF0000AF2
S31508003DF0CBF8003061E700BF859A00080B9B0008E6
S31508003E008D9A0008CC9A0008489B0008209B000859
S31508003E100000F07F0000A07C0000F8FFFFFFEF7FA6
S31508003E2018F0100318BF6A23484605935146002325
S31508003E30A14DB8F1000F00F313810BB181468A46F4
S31508003E40059BBBB1CAF30A53C3F16B03002B51465A
S31508003E5010DD1F2B40F31081342BD8BF4FF0FF32F3
S31508003E604FF00009CFBF4FF05C7A203B02FA03F30C
S31508003E7003EA010A0022002348465146FCF7A4FD3E
S31508003E800028A8D1069B049A009308992346584609
S31508003E9001F0CDFD089000283FF400AF079A079B74
S31508003EA0002AC3F10003A8BF00234FF000080E93B1
S31508003EB022EAE2731693CDF81080089B5846596893
S31508003EC001F02FFD069000283FF4F0AE089B0C3059
S31508003ED01A6903F10C010232920001F017FD1EABBC
S31508003EE001931DAB00934A4653465846CDE90A9AB4
S31508003EF002F058F81C9000283FF4D8AE0121584625
S31508003F0001F021FE0490034600283FF4CFAE1D9D24
S31508003F101E9A002DABBF0E9B169BEE185C1B059BCD
S31508003F20A8BF169CA5EB03051544644B05F1FF35A0
S31508003F30B8BF0E9E9D42C2F1360280F2AF805B1B6F
S31508003F401F2BA2EB03024FF0010700F39C8000250C
S31508003F5007FA03F30F93B718059BBE4214441C4493
S31508003F603346A8BF3B46A342A8BF2346002BC2BF81
S31508003F70FF1AE41AF61A0E9BBBB11A46049958465C
S31508003F8001F080FE049000283FF490AE01461C9A8A
S31508003F90584601F0E1FD099000283FF487AE1C99C8
S31508003FA0584601F0F2FC099B1C93002F7ADC079B0C
S31508003FB0002B08DD169A0699584601F063FE06900E
S31508003FC000283FF473AE002C08DD224606995846B1
S31508003FD001F0A6FE069000283FF468AE002E08DD24
S31508003FE032460499584601F09BFE049000283FF497
S31508003FF05DAE069A1C99584601F000FF80460028D7
S315080040003FF454AE0024C3680499C4600C9301F0CD
S31508004010DBFEA04254DA0C9BF3B9B9F1000F1BD1B1
S31508004020CAF31303C3B92AF000431B0D1B05B3F1EA
S31508004030D66F11D9D8F814301BB9D8F81030012B1F
S315080040400ADD41460122584601F06AFE0499804677
S3150800405001F0BAFE002868DC059B002B72D130E619
S3150800406018F0010F04D0D5E90023FCF745FA01231F
S315080040704FEA68080835DCE64FF0FF3202FA03F328
S3150800408003EA0909F6E6C5F17F4505F57F0505F555
S315080040907B45E23507FA05F50F975CE7012300250E
S315080040A00F9358E73A461C99584601F039FE1C907A
S315080040B000287FF47CAFF9E5E09A000802FCFFFFD0
S315080040C0CDF824A040F089800C9ACAF3130342B3B2
S315080040D0AF4A934256D1059B4846EBB15346AD4A83
S315080040E04FF0FF311A40B2F1D46F18D8120DC2F151
S315080040F06B0301FA03F3984244D1A74B099A9A42F3
S3150800410002D101303FF4D2ADA24B099A4FF0000913
S315080041101A4002F5801A9FE74FF0FF33EBE70B468C
S31508004120E9E77BBBB9F1000F2CD105995346994AAB
S31508004130F1B102EA0A01B1F1D66F19DCB1F15C7F7F
S315080041407FF751AE0023954A4846CDE914325146C9
S31508004150DDE91423FCF7D0F981468A4600297FF465
S31508004160B0AD00287FF4ADAD2223CBF80030A8E52A
S315080041701340A3F580136FEA135A4FF0FF396FEA1D
S315080041800A5A69E79DB1099B1D423FF465AF0C9B2E
S31508004190059A4846514673B1FFF744FB02460B465B
S315080041A0DDE90A01FBF7F2FF81468A4654E70F9BD1
S315080041B013EA090FE9E7FFF735FB02460B46DDE987
S315080041C00A01FBF7E1FF0022002381468A46FCF735
S315080041D0FBFB00287FF407AE3EE70499404601F052
S315080041E030FF00224FF0804306460F46FCF700FCDE
S315080041F0002875D00C9B002B47D00026684F684DC9
S31508004200099B23F000431B0D1B050F930F9A654B63
S315080042109A4240F0CF80DDE90A23CDE91423099BB1
S315080042204846A3F1547A514601F046FE02460B462B
S3150800423030463946FCF760F94A465346FBF7A6FF6F
S315080042400B465449584A1940914281465ED90B9B00
S3150800425002F15472934203D10A9B01333FF426AD0F
S315080042604FF0FF39DFF830A11C99584601F08DFB55
S315080042700699584601F089FB0499584601F085FBD2
S315080042804146584601F081FB17E6B9F1000F19D1EE
S31508004290099BC3F31303E3B90022414B3046394661
S315080042A0FCF79CFBC8B90022404B30463946FCF760
S315080042B023F904460D4605F1004318941993DDE9E0
S315080042C018679DE7B9F1010F03D1099B002B3FF44D
S315080042D08AAD0026364F002491E70C9C334DEAE759
S315080042E0324B002230463946FCF706F90C9B044649
S315080042F00D4633B901F1004310901193DDE91067BB
S315080043007EE702460B46CDE91023F7E703F1547A18
S31508004310059B002BA8D12AF000431B0D0F9A1B05FD
S315080043209A425646A0D129462046FCF795FBFCF74B
S3150800433079F80B46024629462046FBF725FF0C9BD3
S3150800434004460D4633B9B9F1000F03D1CAF3130673
S31508004350002E6AD00AA3D3E9002320462946FCF793
S315080043603DFB00287FF4ADAC07A3D3E90023204624
S315080043702946FCF751FB00283FF476AFA1E400BFBD
S315080043809535A094FFFFDF3F35E5AF350000E03FE8
S31508004390FFFF0F000000F07FFFFFEF7F000050399E
S315080043A00000F03F0000E07FFFFF9F7C0000E03F39
S315080043B00000F0BF059B13B30F9BB3F1D46F1ED853
S315080043C025A3D3E9002320462946FCF711FB90B123
S315080043D029462046FCF768FB002808BF0120FCF7A1
S315080043E011F80C9B04460D46D3B901F1004312900F
S315080043F01393DDE912670F9A07F1D6639F1ADDE971
S315080044000A0101F059FD02460B4630463946FCF7CB
S3150800441073F8DDE90A23FBF7B9FE81468A4677E792
S3150800442002460B46CDE91223E3E70DA3D3E90023A1
S31508004430FCF7D4FA9FE700230D931B9B179A13608A
S31508004440FFF755BA652B4FF000023FF442AB012146
S3150800445014460591FFF7BFBA0000C0FFFFFFDF4112
S315080044609535A094FFFFCF3F054B10B41B68054C4C
S315080044701B6A002B08BF234610BCFFF7F5B900BF1F
S3150800448004000020680000202DE9F0478046894690
S3150800449092461E460F463D46089815F8014B01F010
S315080044A0EBF92044437813F0080332D12D2C32D18E
S315080044B001227C78BD1C002E5DD0102E09D1302C2F
S315080044C007D12B7803F0DF03582B4FD110266C78D1
S315080044D00235002A14BF4FF000416FF00041002753
S315080044E0B1FBF6FC384606FB1C1EA4F13003092B6B
S315080044F017D81C46A64223DD7B1C07D084451CD34F
S3150800450001D1A64519DB012700FB064015F8014B2A
S31508004510EBE72F46BFE72B2C04BFBD1C7C781A4659
S31508004520C9E7A4F14103192B01D8373CE2E7A4F106
S315080045306103192B04D8573CDCE74FF0FF37E5E752
S315080045407B1C08D122230846C8F80030BAF1000FB0
S3150800455007D1BDE8F08702B14042BAF1000FF8D0A2
S315080045600FB105F1FF39CAF80090F2E73024002EA2
S31508004570AFD10826ADE7302CA3D00A26A9E700005C
S3150800458037B5064C064D2468246A002C08BF2C460D
S315080045900094FFF779FF03B030BD00BF0400002088
S315080045A0680000202DE9F74F03690C698046A3428D
S315080045B0C0F28480013C01F1140700F1140657F893
S315080045C0245056F824000135B0FBF5F54FEA840C63
S315080045D006EB0C0307EB0C0901939DB34FF0000A99
S315080045E03846B646D34650F8042B93B205FB03A3C8
S315080045F0120C4FEA134A05FB02A29BB2ABEB03036C
S31508004600DEF800B04FEA124A1FFA8BFB5B441FFA2A
S3150800461082FBDEF800208145CBEB124202EB2342F7
S315080046209BB243EA02434FEA224B4EF8043BDAD2E6
S3150800463056F80C3033B9019B043B9E421A4631D3D7
S31508004640C8F81040404601F0BFFB002826DB30467C
S315080046504FF0000C013557F8041BD0F800E08BB278
S31508004660ACEB03031FFA8EF213440A0CC2EB1E428C
S3150800467002EB23429BB243EA0243B9454FEA224C76
S3150800468040F8043BE7D256F8242006EB84032AB9FF
S31508004690043B9E421A460BD3C8F81040284603B07E
S315080046A0BDE8F08F1268043B002AC9D1013CC4E773
S315080046B01268043B002AEFD1013CEAE70020EEE746
S315080046C02DE9F04F16461F46456A95B00446DDF8B3
S315080046D08480CDE902673DB9102001F0EFF86062E9
S315080046E0C0E901550560C560636A196851B15A6821
S315080046F0012393404A608B60204601F046F9002268
S31508004700636A1A603B1EAFBF0023012223F00043F1
S315080047100393ACBFC8F80030C8F80020AE4BDDF8EC
S315080047200C8033EA08031BD142F20F73209A1360F8
S31508004730029B23B9C8F31300002800F04585229B85
S3150800474053B9A64B21E0A64B06930833229A136069
S31508004750069815B0BDE8F08FA04B06930333F5E72E
S31508004760DDE902670022002330463946FCF72CF9BA
S31508004770824660B10123209A1360229B002B00F029
S315080047802085984B229A1360013B0693E0E712AB0B
S31508004790019313AB009332463B46204601F002FCD8
S315080047A0C8F30A558346002D7DD0B046C7F31303D8
S315080047B043F07F5949F44019A5F2FF35CDF840A0DA
S315080047C00022894B40464946FBF7DEFC7CA3D3E929
S315080047D00023FBF791FE7CA3D3E90023FBF7D6FC65
S315080047E0064628460F46FBF71DFE79A3D3E90023A4
S315080047F0FBF782FE02460B4630463946FBF7C6FCF7
S3150800480006460F46FCF728F9002282460023304662
S315080048103946FCF7E3F848B15046FBF703FE324643
S315080048203B46FCF7D1F808B90AF1FF3ABAF1160F78
S315080048305AD8DDE902236D4901EBCA01D1E9000125
S31508004840FCF7EAF8002851D000230AF1FF3A0D9345
S31508004850129B5D1B6B1E079343BF0023C5F101091D
S3150800486007934FF00009BAF1000F41DB079BCDF81B
S3150800487030A053440793002308931E9B092B00F28C
S315080048808F80052BC4BF043B1E931E9BC8BF002503
S31508004890A3F10203D8BF0125032B00F28D80DFE8C0
S315080048A003F07B7D2F6FDDE912531D4405F232407C
S315080048B0202813DDC0F14000029B08FA00F805F233
S315080048C0124023FA00F048EA0000FBF79BFD01239B
S315080048D08046A1F1F879013D109371E7029BC0F17A
S315080048E0200003FA00F0F0E70123B0E70D90AFE7E8
S315080048F0CAF1000308930023A9EB0A090C93BCE745
S31508004900012309931F9B002B74DD9846049300220C
S31508004910666A7260042202F11400984271686ED9C0
S31508004920204600F0FEFF636A30601B68B8F10E0F80
S31508004930069300F2ED80002D00F0EA80DDE90223FF
S31508004940BAF1000FCDE90E2377DD284A0AF00F03E6
S315080049504FEA2A1602EBC303F006D3E90023CDE992
S315080049600A2368D5DDE90E01214B0325D3E908237F
S31508004970FBF7ECFECDE9020106F00F061C4F4FE0EF
S31508004980012309931F9B534403F1010804934346EB
S31508004990012BB8BF0123BAE70023B2E70023F0E7EB
S315080049A00125002309951E934FF0FF330022049337
S315080049B0984612231F92AAE701230993F4E700BF3A
S315080049C061436F63A787D23FB3C8608B288AC63F07
S315080049D0FB799F501344D33F0000F07F119B0008DA
S315080049E0089B0008449C00080000F83F489B000804
S315080049F0209B00080123049398461A46DAE70131FA
S31508004A007160520087E7F10708D5DDE90A01D7E9A1
S31508004A100023FBF771FDCDE90A0101357610083749
S31508004A20002EF0D1DDE90A23DDE90201FBF78EFE4F
S31508004A30CDE902011BE00225A0E700F0A480DDE92C
S31508004A400E01CAF10006A04B06F00F0203EBC203E3
S31508004A50D3E90023FBF750FD02250023CDE9020127
S31508004A609A4F3611002E40F08380002BE0D10D9B23
S31508004A70002B00F08A80DDE90223CDE90A23DDE96F
S31508004A800A010022924BFBF7A9FF00287DD0B8F156
S31508004A90000F7AD0049B002B36DDDDE90A010022DF
S31508004AA08C4BFBF729FDCDE90201049E0AF1FF377D
S31508004AB001352846FBF7B6FCDDE90223FBF71CFDAA
S31508004AC00022854BFBF762FBA1F15075CDE90A017F
S31508004AD00B95002E5CD1DDE9020100227F4BFBF726
S31508004AE053FB0A9A2B46CDE90201FBF795FF0028EE
S31508004AF040F08182DDE902010A9A05F10043FBF7DD
S31508004B006DFF002840F07582DDE90E23CDE902230A
S31508004B10139B002BC0F24B81BAF10E0F00F34781AD
S31508004B20694B03EBCA03D3E90023CDE904231F9B92
S31508004B30002B80F2D780B8F1000F00F3D38040F045
S31508004B405782DDE904010022644BFBF7D5FCDDE959
S31508004B500223FBF757FF46464746002840F02D82BA
S31508004B60069B069A5D1C31230AF1010A137028E296
S31508004B70F20705D5D7E90023FBF7BEFC012301356B
S31508004B80761008376EE7022571E75746464690E7DE
S31508004B904D4B03EBC60353E90201099B002B48D092
S31508004BA002460B4600204E49FBF7D0FDDDE90A23F5
S31508004BB0FBF7EAFACDE90A01069DDDE90201FBF7F2
S31508004BC04BFF1190FBF72EFC02460B46DDE902016E
S31508004BD0FBF7DAFA119BCDE90201303305F8013B00
S31508004BE0DDE90A23FBF7FAFE002863D1DDE9022393
S31508004BF000203749FBF7C8FADDE90A23FBF7EEFE82
S31508004C00002840F0B580069BEB1A9E427FF77CAFE2
S31508004C10DDE90A0100222F4BFBF76EFC0022CDE9E5
S31508004C200A01DDE902012B4BFBF766FCCDE902011F
S31508004C30C3E7DDE90A23FBF75FFC069BCDE90A011A
S31508004C409D191E46DDE90201FBF706FF1190FBF7E9
S31508004C50E9FB02460B46DDE90201FBF795FA119BD3
S31508004C60CDE90201303306F8013BAE424FF00002AF
S31508004C7024D1DDE90A011A4BFBF788FA02460B46EE
S31508004C80DDE90201FBF7C8FE002871D1DDE90A2338
S31508004C9000201349FBF778FA02460B46DDE90201C4
S31508004CA0FBF79CFE00283FF42FAF15F8013C6A1E5F
S31508004CB0302B01D0BA464AE01546F6E7054BFBF716
S31508004CC01BFCCDE90201BDE7489B0008209B0008B4
S31508004CD00000F03F0000244000001C400000144083
S31508004CE00000E03F069DDDE90267DDE90423304662
S31508004CF03946FBF72BFDFBF7AFFE8146FBF792FB28
S31508004D00DDE90423FBF7F8FB02460B463046394635
S31508004D10FBF73AFA09F1300605F8016B069E0246DA
S31508004D20AE1BB0450B4635D1FBF730FADDE9042357
S31508004D3006460F46FBF770FEC8B9DDE90423304680
S31508004D403946FBF741FE10B119F0010F0FD159464C
S31508004D50204600F01AFE0023209A2B700AF1010360
S31508004D601360229B002B3FF4F3AC1D60F0E457461A
S31508004D7015F8012C6B1E392A06D1069A9A4207D1D4
S31508004D8030231370134601371A7801321A7091E7E7
S31508004D901D46EDE70022994BFBF7AEFB00220023E8
S31508004DA006460F46FBF710FE00289ED0CFE7099A65
S31508004DB0002A00F088801E9A012A6DDC109A002AC3
S31508004DC066D003F233434D46089E079A01211A44DA
S31508004DD020469944079200F0B6FE0746002D0BDDE3
S31508004DE0079B002B08DDAB42A8BF2B46079AA9EB09
S31508004DF00309ED1AD31A0793089BEBB1099B002BFD
S31508004E0065D08EB139463246204600F03BFF5A46F9
S31508004E1001460746204600F09FFE59460A9020465E
S31508004E2000F0B3FD0A9B9B46089B9A1B04D0594683
S31508004E30204600F027FF83460121204600F083FE26
S31508004E400C9B0646002B00F0C6811A4601462046F2
S31508004E5000F018FF1E9B0646012B3EDC029B002B2A
S31508004E6037D1039BC3F31303002B34D1039B23F0E1
S31508004E7000431B0D1B052BB1079B09F101090133E3
S31508004E800793012308930C9B002B28D101202EE0C1
S31508004E90129BC3F1360396E7089B08F1FF36B34227
S31508004EA0B7BF089B9E1BF21A0C9BBFBF08969B18A0
S31508004EB00C930026B8F1000FB9BFA9EB080500232B
S31508004EC04D46434681E7089E4D46099F86E7089A60
S31508004ED0ADE70023D6E7029BD4E70023089333699E
S31508004EE006EB8303186900F0E0FDC0F12000079B7C
S31508004EF0184410F01F0047D0C0F12003042B3BDDF7
S31508004F00079BC0F11C008144054403440793B9F18B
S31508004F10000F05DD59464A46204600F001FF834644
S31508004F20079B002B05DD31461A46204600F0F8FEA1
S31508004F3006460D9B53B33146584600F045FF0028F8
S31508004F4024DA002359460A22204600F035FD099B3B
S31508004F500AF1FF3A8346002B00F0448100233946C4
S31508004F600A22204600F028FD049B0746002B4DDC4C
S31508004F701E9B022B4ADD11E0C9D0079A1C331A443E
S31508004F8099441D441346C1E70346F6E7B8F1000FF6
S31508004F9036DC1E9B022B33DDCDF81080049B63B9EB
S31508004FA031460522204600F007FD014606465846CA
S31508004FB000F00AFF00283FF7D3AD1F9B069D6FEA56
S31508004FC0030A4FF000093146204600F0DEFC002FA8
S31508004FD03FF4BDAEB9F1000F05D0B94503D0494637
S31508004FE0204600F0D2FC3946204600F0CEFCAEE65C
S31508004FF000263746E1E7BA463746B1E500002440C1
S31508005000099BCDF81080002B00F0F380002D05DDFC
S3150800501039462A46204600F083FE0746089B002BA1
S315080050204CD07968204600F07CFC05463A6907F1C1
S315080050300C01023292000C3000F068FC012229466D
S31508005040204600F06DFEB9460746069B0793029B6D
S3150800505003F00103089331465846FFF7A3FA494679
S31508005060054600F13008584600F0AEFE3A46029072
S315080050703146204600F0C2FEC368024603BB01461D
S315080050800990584600F0A0FE0346099A11462046A4
S31508005090099300F07AFC099BA3B91E9A92B9089A5B
S315080050A082B9B8F1390F29D0029B002B01DD05F131
S315080050B03108079B5D1C83F8008084E73846C2E701
S315080050C00123E3E7029A002A04DB23D11E9A0ABBCE
S315080050D0089AFAB9002BECDD59460122204600F061
S315080050E01FFE3146834600F06FFE002803DCE0D140
S315080050F018F0010FDDD0B8F1390FD8D1079B079A00
S315080051005D1C3923137015F8013C6A1E392B4DD0E6
S31508005110013352E0079A002B02F1010506DDB8F1CA
S31508005120390FEBD008F10108079BC4E7069B049AE0
S31508005130EB1A934205F8018C21D0594600230A221E
S31508005140204600F039FCB94583464FF000034FF07E
S315080051500A024946204605D100F02EFC814607463C
S31508005160079578E700F028FC3946814600230A228D
S31508005170204600F021FC0746F2E74FF000095946A1
S315080051800122204600F0CCFD3146834600F01CFE85
S315080051900028B8DC02D118F0010FB4D115F8013C8B
S315080051A06A1E302B7FF40FAF1546F7E7069B93422E
S315080051B005D13123069A0AF1010A137003E7154649
S315080051C0A1E7174BFFF7E1BA229B002B7FF4BBAA96
S315080051D0144BFFF7DABA1E9B012B7FF73FAE0C9BE9
S315080051E0089353E6049B002B03DC1E9B022B3FF718
S315080051F0D5AE069D31465846FFF7D4F9069B00F111
S31508005200300805F8018B049AEB1A9A42B5DD59461F
S3150800521000230A22204600F0CFFB8346EAE700BFB8
S31508005220439C0008089B0008F0B506694B119E428E
S3150800523000F1140431DD11F01F0104EB860604EBBE
S31508005240830208D12146B2420B4611D252F8043BDA
S3150800525041F8043BF7E754F823502346C1F1200CE4
S31508005260CD400432B24217460DD31D6005B1043352
S31508005270A342A3EB040208BF00234FEAA20202617D
S3150800528008BF4361F0BD3F6807FA0CF73D4343F892
S31508005290045B52F8045BCD40E4E72346E8E7A0F157
S315080052A03003092B02D82038C0B27047A0F1610339
S315080052B0052B01D84738F7E7A0F14103052B01D89C
S315080052C02738F1E7002070472DE9F04F8BB00290A0
S315080052D016988A469046069300F0E0FA03684FF05F
S315080052E0000B18460393FAF743FF039B0190034408
S315080052F013F8013C0793DAF8003002331F4613F817
S31508005300010B30286CD0FFF7CAFF044600286AD183
S31508005310019A0399384601F046FC002866D1019B9C
S31508005320F85CFE18FFF7BBFF002862D033461878F2
S315080053301F46302803F10103F9D0FFF7B0FFB0FA92
S3150800534080F534464FF0010B6D093A46164630781B
S315080053500132FFF7A4FF0028F8D1019A03993046D5
S3150800536001F021FC50B954B9019BF418224616469F
S3150800537030780132FFF793FF0028F8D10CB1A41B4F
S31508005380A4003378502B01D0702B40D173782B2B87
S3150800539031D02D2B33D04FF00009711C0878FFF758
S315080053A07EFF431EDBB2182B31D8A0F1100211F88C
S315080053B0010FFFF774FF431EDBB2182B22D9B9F190
S315080053C0000F00D052421444CAF800100DB3BBF1C6
S315080053D0000F0CBF0627002738460BB0BDE8F08F34
S315080053E00BF1010B8AE700252C46AEE73E46012560
S315080053F0C7E70446FBE74FF00009B11CCEE74FF0BC
S315080054000109FAE70A2303FB0202103ACFE73146FD
S31508005410DAE72946F31B013B072B49DC029800F023
S3150800542080FA4FF0000B0546DA46019B00F1140995
S31508005430C3F10103CDF810900893B7423BD3049803
S3150800544040F804ABA0EB09008010286147015046DC
S3150800545000F02BFBD8F800603F1AB74264DDBF1B8B
S315080054603946284600F035FE824678B14FF0010AE3
S315080054707B1E591103F01F0259F821100AFA02F28D
S315080054800A4203D0534546DC4FF0020A39462846FD
S31508005490FFF7CAFE3C44D8F80830A34252DA294638
S315080054A0029800F072FA0023149AA327136093E770
S315080054B001315B10B0E7731E0593079A16F8013C95
S315080054C0934218D0BBF1200F07D1049BC3F800A064
S315080054D04FF0000AD3460433049316F8010CFFF77D
S315080054E0DEFE00F00F0000FA0BF04AEA000A0BF1A4
S315080054F0040B059B0DE0059B089A1344BB42E1D3B8
