S011000070696E6F636368494F2E7372656397
S315080000000000012079300008C9300008C93000080E
S31508000010C9300008C9300008C930000800000000CF
S31508000020000000000000000000000000C9300008C1
S31508000030C930000800000000C9300008A91C0008E3
S31508000040C9300008C9300008C9300008C93000089E
S31508000050C9300008C9300008C9300008C93000088E
S31508000060C9300008C9300008E1130008C930000883
S31508000070C9300008C9300008C9300008C93000086E
S31508000080C9300008C9300008C9300008C93000085E
S31508000090912C0008C9300008C9300008251400084A
S315080000A0C9300008991B0008C9300008C930000883
S315080000B0C9300008C9300008C9300008C93000082E
S315080000C0C9300008C9300008C9300008C93000081E
S315080000D0C9300008C9300008C9300008C93000080E
S315080000E04D150008C930000800000000C930000896
S315080000F0C9300008C9300008C9300008C9300008EE
S31508000100C9300008C9300008C9300008C9300008DD
S31508000110C9300008C9300008C9300008C9300008CD
S31508000120C9300008C9300008C9300008C9300008BD
S3150800013010B5054C237833B9044B13B10448AFF313
S3150800014000800123237010BDD401002000000000A8
S31508000150C074000808B5034B1BB103490348AFF345
S31508000160008008BD00000000D8010020C074000807
S31508000170034613F8012B002AFBD1181A01387047D9
S3150800018081F0004102E000BF83F0004330B54FEA3A
S3150800019041044FEA430594EA050F08BF90EA020FA7
S315080001A01FBF54EA000C55EA020C7FEA645C7FEA3A
S315080001B0655C00F0E2804FEA5454D4EB5555B8BF5D
S315080001C06D420CDD2C4480EA020281EA030382EACE
S315080001D0000083EA010180EA020281EA0303362D60
S315080001E088BF30BD11F0004F4FEA01314FF4801C33
S315080001F04CEA113102D0404261EB410113F0004F45
S315080002004FEA03334CEA133302D0524263EB4303FB
S3150800021094EA050F00F0A780A4F10104D5F1200E99
S315080002200DDB02FA0EFC22FA05F2801841F10001F4
S3150800023003FA0EF2801843FA05F359410EE0A5F1C8
S3150800024020050EF1200E012A03FA0EFC28BF4CF0F9
S31508000250020C43FA05F3C01851EBE37101F00045AF
S3150800026007D54FF0000EDCF1000C7EEB00006EEBBC
S315080002700101B1F5801F1BD3B1F5001F0CD3490846
S315080002805FEA30004FEA3C0C04F101044FEA44529D
S3150800029012F5800F80F09A80BCF1004F08BF5FEA24
S315080002A0500C50F1000041EB045141EA050130BD04
S315080002B05FEA4C0C404141EB010111F4801FA4F1A7
S315080002C00104E9D191F0000F04BF01460020B1FAFC
S315080002D081F308BF2033A3F10B03B3F120020CDA34
S315080002E00C3208DD02F1140CC2F10C0201FA0CF012
S315080002F021FA02F10CE002F11402D8BFC2F1200C77
S3150800030001FA02F120FA0CFCDCBF41EA0C0190402C
S31508000310E41AA2BF01EB0451294330BD6FEA040475
S315080003201F3C1CDA0C340EDC04F11404C4F1200260
S3150800033020FA04F001FA02F340EA030021FA04F372
S3150800034045EA030130BDC4F10C04C4F1200220FAC9
S3150800035002F001FA04F340EA0300294630BD21FA07
S3150800036004F0294630BD94F0000F83F4801306BFCD
S3150800037081F480110134013D4EE77FEA645C18BFC1
S315080003807FEA655C29D094EA050F08BF90EA020F58
S3150800039005D054EA000C04BF1946104630BD91EA50
S315080003A0030F1EBF0021002030BD5FEA545C05D153
S315080003B04000494128BF41F0004130BD14F5800492
S315080003C03CBF01F5801130BD01F0004545F0FE4106
S315080003D041F470014FF0000030BD7FEA645C1ABF3B
S315080003E0194610467FEA655C1CBF0B46024650EA72
S315080003F0013406BF52EA033591EA030F41F400219E
S3150800040030BD00BF90F0000F04BF0021704730B523
S315080004104FF4806404F132044FF000054FF00001F8
S3150800042050E700BF90F0000F04BF0021704730B5B9
S315080004304FF4806404F1320410F0004548BF40428E
S315080004404FF000013EE700BF42004FEAE2014FEAE3
S3150800045031014FEA02701FBF12F07F4393F07F4FBE
S3150800046081F06051704732F07F4208BF704793F0C1
S315080004707F4F04BF41F40021704730B54FF46074D4
S3150800048001F0004521F000411CE700BF50EA0102D7
S3150800049008BF704730B54FF000050AE050EA010280
S315080004A008BF704730B511F0004502D5404261EBF0
S315080004B041014FF4806404F132045FEA915C3FF431
S315080004C0D8AE4FF003025FEADC0C18BF03325FEACE
S315080004D0DC0C18BF033202EBDC02C2F1200300FA7F
S315080004E003FC20FA02F001FA03FE40EA0E0021FAA4
S315080004F002F11444BDE600BF70B54FF0FF0C4CF492
S31508000500E06C1CEA11541DBF1CEA135594EA0C0F43
S3150800051095EA0C0F00F0DEF82C4481EA030621EA7E
S315080005204C5123EA4C5350EA013518BF52EA0335B9
S3150800053041F4801143F4801338D0A0FB02CE4FF06B
S315080005400005E1FB02E506F00042E0FB03E54FF09B
S315080005500006E1FB03569CF0000F18BF4EF0010E93
S31508000560A4F1FF04B6F5007F64F5407404D25FEA8F
S315080005704E0E6D4146EB060642EAC62141EA555142
S315080005804FEAC52040EA5E504FEACE2EB4F1FD0C84
S3150800059088BFBCF5E06F1ED8BEF1004F08BF5FEA02
S315080005A0500E50F1000041EB045170BD06F00046B4
S315080005B046EA010140EA020081EA0301B4EB5C0461
S315080005C0C2BFD4EB0C0541EA045170BD41F4801159
S315080005D04FF0000E013C00F3AB8014F1360FDEBF7E
S315080005E0002001F0004170BDC4F10004203C35DA5A
S315080005F00C341BDC04F11404C4F1200500FA05F3DD
S3150800060020FA04F001FA05F240EA020001F000427D
S3150800061021F0004110EBD37021FA04F642EB0601F3
S315080006205EEA430E08BF20EAD37070BDC4F10C041D
S31508000630C4F1200500FA04F320FA05F001FA04F2E1
S3150800064040EA020001F0004110EBD37041F10001CD
S315080006505EEA430E08BF20EAD37070BDC4F12005D8
S3150800066000FA05F24EEA020E20FA04F301FA05F240
S3150800067043EA020321FA04F001F0004121FA04F2E8
S3150800068020EA020000EBD3705EEA430E08BF20EAB8
S31508000690D37070BD94F0000F0FD101F000464000F2
S315080006A041EB010111F4801F08BF013CF7D041EA74
S315080006B0060195F0000F18BF704703F00046520078
S315080006C043EB030313F4801F08BF013DF7D043EA49
S315080006D00603704794EA0C0F0CEA135518BF95EAFF
S315080006E00C0F0CD050EA410618BF52EA4306D1D186
S315080006F081EA030101F000414FF0000070BD50EAA5
S31508000700410606BF1046194652EA430619D094EA2E
S315080007100C0F02D150EA013613D195EA0C0F05D118
S3150800072052EA03361CBF104619460AD181EA03016C
S3150800073001F0004141F0FE4141F470014FF0000024
S3150800074070BD41F0FE4141F4780170BD70B54FF0BF
S31508000750FF0C4CF4E06C1CEA11541DBF1CEA13553F
S3150800076094EA0C0F95EA0C0F00F0A7F8A4EB050421
S3150800077081EA030E52EA03354FEA013100F0888018
S315080007804FEA03334FF0805545EA131343EA1263E1
S315080007904FEA022245EA111545EA10654FEA002696
S315080007A00EF000419D4208BF964244F1FD0404F54F
S315080007B0407402D25B084FEA3202B61A65EB0305AB
S315080007C05B084FEA32024FF480104FF4002CB6EB68
S315080007D0020E75EB030E22BFB61A754640EA0C00E8
S315080007E05B084FEA3202B6EB020E75EB030E22BF28
S315080007F0B61A754640EA5C005B084FEA3202B6EB69
S31508000800020E75EB030E22BFB61A754640EA9C0027
S315080008105B084FEA3202B6EB020E75EB030E22BFF7
S31508000820B61A754640EADC0055EA060E18D04FEAB5
S31508000830051545EA16754FEA06164FEAC30343EA55
S3150800084052734FEAC2025FEA1C1CC0D111F4801F22
S315080008500BD141EA00014FF000004FF0004CB6E71B
S3150800086011F4801F04BF01430020B4F1FD0C88BFBA
S31508000870BCF5E06F3FF6AFAEB5EB030C04BFB6EBC5
S31508000880020C5FEA500C50F1000041EB045170BDB8
S315080008900EF0004E4EEA113114EB5C04C2BFD4EBE5
S315080008A00C0541EA045170BD41F480114FF0000E69
S315080008B0013C90E645EA060E8DE60CEA135594EAE5
S315080008C00C0F08BF95EA0C0F3FF43BAF94EA0C0FE8
S315080008D00AD150EA01347FF434AF95EA0C0F7FF45D
S315080008E025AF104619462CE795EA0C0F06D152EAB1
S315080008F003353FF4FDAE1046194622E750EA410695
S3150800090018BF52EA43067FF4C5AE50EA41047FF4A5
S315080009100DAF52EA43057FF4EBAE12E74FF0FF3C0A
S3150800092006E000BF4FF0010C02E000BF4FF0010CDB
S315080009304DF804CD4FEA410C7FEA6C5C4FEA430C54
S3150800094018BF7FEA6C5C1BD001B050EA410C0CBFA3
S3150800095052EA430C91EA030F02BF90EA020F002005
S31508000960704710F1000F91EA030F58BF994208BF6C
S3150800097090422CBFD8176FEAE37040F00100704729
S315080009804FEA410C7FEA6C5C02D150EA013C07D180
S315080009904FEA430C7FEA6C5CD6D152EA033CD3D0CB
S315080009A05DF8040B704700BF8446104662468C46C5
S315080009B01946634600E000BF01B5FFF7B7FF0028F8
S315080009C048BF10F1000F01BD4DF808EDFFF7F4FF21
S315080009D00CBF012000205DF808FB00BF4DF808EDAC
S315080009E0FFF7EAFF34BF012000205DF808FB00BFCF
S315080009F04DF808EDFFF7E0FF94BF012000205DF8F1
S31508000A0008FB00BF4DF808EDFFF7CEFF94BF0120A5
S31508000A1000205DF808FB00BF4DF808EDFFF7C4FF9E
S31508000A2034BF012000205DF808FB00BF4FEA410CE7
S31508000A307FEA6C5C02D150EA013C0AD14FEA430CCA
S31508000A407FEA6C5C02D152EA033C02D14FF0000007
S31508000A5070474FF0010070474FEA410212F5001245
S31508000A6015D211D56FF47873B3EB625212D94FEAE7
S31508000A70C12343F0004343EA505311F0004F23FAD1
S31508000A8002F018BF404270474FF00000704750EA26
S31508000A90013005D111F0004008BF6FF000407047E3
S31508000AA04FF00000704700BF4A0011D212F500123D
S31508000AB011D20DD56FF47873B3EB62520ED44FEAA8
S31508000AC0C12343F0004343EA505323FA02F0704728
S31508000AD04FF00000704750EA013002D14FF0FF3066
S31508000AE070474FF0000070474FEA4102B2F1E04309
S31508000AF024BFB3F5001CDCF1FE5C0DD901F0004CF7
S31508000B004FEAC0024CEA5070B2F1004F40EB830046
S31508000B1008BF20F00100704711F0804F21D113F172
S31508000B203872BCBF01F00040704741F480114FEAAB
S31508000B305252C2F11802C2F1200C10FA0CF320FA34
S31508000B4002F018BF40F001004FEAC1234FEAD32351
S31508000B5003FA0CFC40EA0C0023FA02F34FEA4303BB
S31508000B60CCE77FEA625307D150EA01331EBF4FF044
S31508000B70FE4040F44000704701F0004040F0FE405F
S31508000B8040F40000704700BF80F0004002E000BF5C
S31508000B9081F0004142001FBF5FEA410392EA030F5A
S31508000BA07FEA226C7FEA236C6AD04FEA1262D2EBA4
S31508000BB01363C1BFD218414048404140B8BF5B42A9
S31508000BC0192B88BF704710F0004F40F4000020F042
S31508000BD07F4018BF404211F0004F41F4000121F058
S31508000BE07F4118BF494292EA030F3FD0A2F10102A2
S31508000BF041FA03FC10EB0C00C3F1200301FA03F1E0
S31508000C0000F0004302D5494260EB4000B0F5000F02
S31508000C1013D3B0F1807F06D340084FEA310102F1C1
S31508000C200102FE2A51D2B1F1004F40EBC25008BF73
S31508000C3020F0010040EA03007047490040EB00003D
S31508000C4010F4000FA2F10102EDD1B0FA80FCACF16C
S31508000C50080CB2EB0C0200FA0CF0AABF00EBC2506B
S31508000C6052421843BCBFD0401843704792F0000F59
S31508000C7081F4000106BF80F400000132013BB5E7AC
S31508000C804FEA41037FEA226C18BF7FEA236C21D022
S31508000C9092EA030F04D092F0000F08BF0846704787
S31508000CA090EA010F1CBF0020704712F07F4F04D155
S31508000CB0400028BF40F00040704712F100723CBF68
S31508000CC000F50000704700F0004343F0FE4040F492
S31508000CD0000070477FEA226216BF08467FEA236350
S31508000CE00146420206BF5FEA412390EA010F40F43B
S31508000CF0800070474FF0000304E000BF10F0004387
S31508000D0048BF40425FEA000C08BF704743F096436D
S31508000D1001464FF000001CE050EA010208BF704788
S31508000D204FF000030AE000BF50EA010208BF70470F
S31508000D3011F0004302D5404261EB41015FEA010C24
S31508000D4002BF84460146002043F0B64308BFA3F11C
S31508000D508053A3F50003BCFA8CF2083AA3EBC253FE
S31508000D6010DB01FA02FC634400FA02FCC2F120021D
S31508000D70BCF1004F20FA02F243EB020008BF20F054
S31508000D800100704702F1200201FA02FCC2F12002BA
S31508000D9050EA4C0021FA02F243EB020008BF20EAAF
S31508000DA0DC7070474FF0FF0C1CEAD0521EBF1CEADD
S31508000DB0D15392EA0C0F93EA0C0F6FD01A4480EACB
S31508000DC0010C400218BF5FEA41211ED04FF00063B4
S31508000DD043EA501043EA5111A0FB01310CF00040E0
S31508000DE0B1F5000F3EBF490041EAD3715B0040EA06
S31508000DF0010062F17F02FD2A1DD8B3F1004F40EBD6
S31508000E00C25008BF20F00100704790F0000F0CF0A8
S31508000E10004C08BF49024CEA502040EA51207F3A6C
S31508000E20C2BFD2F1FF0340EAC250704740F4000047
S31508000E304FF00003013A5DDC12F1190FDCBF00F038
S31508000E4000407047C2F10002410021FA02F1C2F1E6
S31508000E50200200FA02FC5FEA310040F1000053EA82
S31508000E604C0308BF20EADC70704792F0000F00F0D0
S31508000E70004C02BF400010F4000F013AF9D040EAD6
S31508000E800C0093F0000F01F0004C02BF490011F46A
S31508000E90000F013BF9D041EA0C018FE70CEAD15368
S31508000EA092EA0C0F18BF93EA0C0F0AD030F0004CE8
S31508000EB018BF31F0004CD8D180EA010000F000409C
S31508000EC0704790F0000F17BF90F0004F084691F05A
S31508000ED0000F91F0004F14D092EA0C0F01D1420294
S31508000EE00FD193EA0C0F03D14B0218BF084608D15D
S31508000EF080EA010000F0004040F0FE4040F40000A7
S31508000F00704740F0FE4040F4400070474FF0FF0C39
S31508000F101CEAD0521EBF1CEAD15392EA0C0F93EA80
S31508000F200C0F69D0A2EB030280EA010C49024FEAD2
S31508000F30402037D04FF0805343EA111143EA10138B
S31508000F400CF000408B4238BF5B0042F17D024FF443
S31508000F50000C8B4224BF5B1A40EA0C00B3EB510F1E
S31508000F6024BFA3EB510340EA5C00B3EB910F24BF07
S31508000F70A3EB910340EA9C00B3EBD10F24BFA3EB8C
S31508000F80D10340EADC001B0118BF5FEA1C1CE0D154
S31508000F90FD2A3FF650AF8B4240EBC25008BF20F007
S31508000FA0010070470CF0004C4CEA50207F32C2BF5B
S31508000FB0D2F1FF0340EAC250704740F400004FF0F8
S31508000FC00003013A37E792F0000F00F0004C02BF29
S31508000FD0400010F4000F013AF9D040EA0C0093F0F3
S31508000FE0000F01F0004C02BF490011F4000F013B4D
S31508000FF0F9D041EA0C0195E70CEAD15392EA0C0FB5
S3150800100008D142027FF47DAF93EA0C0F7FF470AFEC
S31508001010084676E793EA0C0F04D14B023FF44CAF2F
S3150800102008466EE730F0004C18BF31F0004CCAD1C4
S3150800103030F000427FF45CAF31F000437FF43CAF00
S315080010405FE700BF4FF0FF3C06E000BF4FF0010C22
S3150800105002E000BF4FF0010C4DF804CD4FEA400204
S315080010604FEA41037FEA226C18BF7FEA236C11D04E
S3150800107001B052EA530C18BF90EA010F58BFB2EB01
S31508001080030088BFC81738BF6FEAE17018BF40F081
S31508001090010070477FEA226C02D15FEA402C05D135
S315080010A07FEA236CE4D15FEA412CE1D05DF8040BBA
S315080010B0704700BF844608466146FFE70FB5FFF74D
S315080010C0C9FF002848BF10F1000F0FBD4DF808ED05
S315080010D0FFF7F4FF0CBF012000205DF808FB00BFF6
S315080010E04DF808EDFFF7EAFF34BF012000205DF850
S315080010F008FB00BF4DF808EDFFF7E0FF94BF01209D
S3150800110000205DF808FB00BF4DF808EDFFF7D2FF99
S3150800111094BF012000205DF808FB00BF4DF808EDDC
S31508001120FFF7C8FF34BF012000205DF808FB00BFA9
S3150800113042000ED2B2F1FE4F0BD34FF09E03B3EB33
S31508001140126209D44FEA002343F0004323FA02F05F
S3150800115070474FF00000704712F1610F01D142024B
S3150800116002D14FF0FF3070474FF00000704700BFC4
S31508001170034A52F82030013342F82030704700BF46
S31508001180F0010020034B03EB8000036D0133036578
S31508001190704700BFF0010020024B002243F82020D0
S315080011A0704700BFF0010020024B03EB80000023CC
S315080011B003657047F0010020014B53F82000704783
S315080011C0F0010020024B03EB8000006D704700BF62
S315080011D0F0010020024B1844012380F8A030704724
S315080011E0F0010020024B1844012380F8B430704700
S315080011F0F0010020024B1844002380F8A030704705
S31508001200F0010020024B1844002380F8B4307047E0
S31508001210F0010020024B184490F8A000704700BF68
S31508001220F0010020024B184490F8B400704700BF44
S31508001230F0010020044B03EB8000D0F8C8300133DE
S31508001240C0F8C830704700BFF0010020044B03EB1C
S315080012508000D0F818310133C0F81831704700BF44
S31508001260F0010020034B03EB80000023C0F8C830D0
S31508001270704700BFF0010020034B03EB80000023FA
S31508001280C0F81831704700BFF0010020024B03EB8D
S315080012908000D0F8C8007047F0010020024B03EB2D
S315080012A08000D0F818017047F0010020A1F1410331
S315080012B0DBB2022B13D830B4412916D042291DD1EE
S315080012C052B3012A14BF4FF0FF340A24174B18BF34
S315080012D00023432918D00360446030BC70470023BC
S315080012E003604FF0FF33436070470F2A1AD814463D
S315080012F00E4B0F4D072AC8BF2B4602E04FF0FF34AE
S3150800130000234329E7D152B1012A08BF0724084917
S31508001310012A08BF0B46DEE70924044BDBE708244D
S31508001320024BD8E74FF0FF340023EAE700080140F4
S31508001330000C014030B407291FD9083907293AD8C3
S3150800134089004268012303FA01F422EA0402426092
S315080013504568022202FA01F42C43446011444468A9
S3150800136003FA01F524EA05044460446802FA01F127
S3150800137024EA0101416018461BE08900026801233E
S3150800138003FA01F422EA040202600568022202FA5C
S3150800139001F42C4304601144046803FA01F524EAB5
S315080013A005040460046802FA01F124EA01010160F7
S315080013B0184630BC70470020FBE700B583B00A46E4
S315080013C001466846FFF772FF009B9A680123019958
S315080013D08B40134214BF0120002003B05DF804FBC4
S315080013E008B50E4B5B6913F0100F00D108BD0B4A08
S315080013F0536943F010035361094B9B6813F0100FB0
S3150800140008D1074B9B6813F0100FEFD10420FFF7A4
S315080014101DFFEBE70420FFF70DFFF2E7000401408C
S315080014200008014008B5464B5B6913F0200F14D13C
S31508001430434B5B6913F0400F26D1414B5B6913F0B0
S31508001440800F38D13E4B5B6913F4807F4AD13C4B01
S315080014505B6913F4007F5CD108BD394A536943F0D0
S3150800146020035361374B9B6813F0200F08D1354B87
S315080014709B6813F0200FDBD10520FFF7E7FED7E7BF
S315080014800520FFF7D7FEF2E72D4A536943F04003DC
S3150800149053612C4B9B6813F0400F08D1294B9B686E
S315080014A013F0400FC9D10620FFF7D0FEC5E7062086
S315080014B0FFF7C0FEF2E7224A536943F080035361FF
S315080014C0204B9B6813F0800F08D11E4B9B6813F0C6
S315080014D0800FB7D10720FFF7B9FEB3E70720FFF75C
S315080014E0A9FEF2E7164A536943F480735361164B13
S315080014F09B6813F4807F08D1124B9B6813F4807F96
S31508001500A5D10820FFF7A2FEA1E70820FFF792FE63
S31508001510F2E70B4A536943F400735361094B9B681E
S3150800152013F4007F08D1074B9B6813F4007F93D10F
S315080015300920FFF78BFE8FE70920FFF77BFEF2E70E
S315080015400004014000080140000C014008B5174B93
S315080015505B6913F4806F05D1144B5B6913F4805FE4
S3150800156017D108BD114A536943F480635361104B80
S315080015709B6813F4806F08D10D4B9B6813F4806F3A
S31508001580EAD10A20FFF762FEE6E70A20FFF752FED5
S31508001590F2E7064A536943F4805353610C20FFF778
S315080015A049FE0C20FFF752FEDBE700BF00040140AE
S315080015B000080140034A536823F4700343F4801378
S315080015C05360704700100140024B4FF400521A61F5
S315080015D0704700BF00100140024B4FF000521A61DD
S315080015E0704700BF00100140074B1A6822F00F022F
S315080015F042F001021A601A6822F0F00242F0100264
S315080016001A6003225A617047000C0140024A1369A6
S3150800161043F0010313617047000C0140024A536905
S3150800162043F0010353617047000C0140024B986870
S3150800163000F00100704700BF000C0140024A136920
S3150800164043F0020313617047000C0140024A5369D4
S3150800165043F0020353617047000C0140024B98683F
S31508001660C0F34000704700BF000C0140074A5368AA
S3150800167023F00F0343F00103536002F580621368F9
S3150800168023F0704343F0805313607047000801400D
S31508001690064A536823F0F00343F010035360536877
S315080016A023F4706343F48073536070470008014065
S315080016B038B5394C236823F00F0343F00103236040
S315080016C0236823F0F00343F010032360236823F410
S315080016D0706343F480732360236823F4704343F4F0
S315080016E080532360236823F4702343F480332360F4
S315080016F0236823F4700343F480132360236823F0DC
S31508001700706343F080732360236823F0704343F0CB
S3150800171080532360214D04212846FFF70BFE05213F
S315080017202846FFF707FE1E4B5A6822F00F0242F0C2
S3150800173001025A605A6822F0F00242F010025A601A
S315080017405A6822F4706242F480725A605A6822F427
S31508001750704242F480525A605A6822F4702242F467
S3150800176080325A605A6822F4700242F480125A6033
S315080017705A6822F0706242F080725A605A6822F003
S31508001780704242F080525A604FF47F0222614FF055
S315080017907F421A6138BD00BF0008014000100140B1
S315080017A0000C01400F4AD36943F00053D3610E4B36
S315080017B01A6842F001021A601A6842F480321A6006
S315080017C01A6822F004021A601A6822F480221A6043
S315080017D01A6822F002021A601A6822F400321A60A5
S315080017E0704700BF0010024000740040B1F5805FEA
S315080017F00CD2012803D0022804D000207047044BDD
S3150800180099607047024B5961012070470020704764
S3150800181000740040012805D0022806BF034B186B48
S3150800182000207047014BD86A704700BF007400401B
S3150800183008B50B49FFF7B6FAFEF706FE0022094B74
S31508001840FEF784FF02460B4603A1D1E90001FEF725
S315080018509BFCFFF701F908BD0000000000FC9F4053
S3150800186000F07F450000344038B505460C460B4964
S315080018702046FFF749FC78B109492046FFF73AFCAC
S3150800188008B9002009E02046FFF7D2FF014628469E
S31508001890FFF7ACFF012000E0002038BD000020C1A2
S315080018A0000020410000000008B5C0F5FF600730C1
S315080018B0FEF7B8FD0022084BFEF71EFE04A3D3E987
S315080018C00023FEF743FFFFF70FF908BDAFF30080CB
S315080018D00000000000FEAF400000344008B5FFF7E6
S315080018E099FFFFF7E1FF08BD08B50F4A936943F072
S315080018F01C039361A2F58432536823F0F00343F086
S3150800190010035360536823F4706343F48073536081
S31508001910FFF750FEFFF768FEFFF7A8FEFFF7B8FED1
S31508001920FFF7C6FE08BD00BF0010024008B501F06B
S315080019304FFA01F037FB08BD0EB4F0B588B007467C
S315080019400DAB53F8045B0793002D0BDD00241B4EEB
S31508001950079B1A1D07921968304602F083FA01346C
S31508001960A542F5D13A461649684602F02FFA134CB5
S315080019706946204602F076FA2046FEF7F9FB114B37
S315080019801B8823520A21204601F040FB05462046C3
S31508001990FEF7EEFBA84205D0002008B0BDE8F040EF
S315080019A003B07047002525702046FEF7E1FB024686
S315080019B02946204601F0CEFB0120EEE75803002019
S315080019C0CCA00008D0A000080EB4F0B588B0074631
S315080019D00DAB53F8045B0793002D0BDD00241D4E59
S315080019E0079B1A1D07921968304602F03BFA013424
S315080019F0A542F5D13846FEF727FD02460B4616499D
S31508001A00684602F0E3F9134C6946204602F02AFAC2
S31508001A102046FEF7ADFB114B1B8823520A212046B0
S31508001A2001F0F4FA05462046FEF7A2FBA84205D0C7
S31508001A30002008B0BDE8F04003B0704700252570C7
S31508001A402046FEF795FB02462946204601F082FB12
S31508001A500120EEE758030020D4A00008D0A0000813
S31508001A600FB470B582B006AB53F8045B0193002D32
S31508001A700BDD0024164E019B1A1D0192196830468B
S31508001A8002F0F0F90134A542F5D1114C2046FEF7D3
S31508001A906FFB104B1B8823520A21204601F0B6FA29
S31508001AA005462046FEF764FBA84205D0002002B092
S31508001AB0BDE8704004B07047002525702046FEF743
S31508001AC057FB02462946204601F044FB0120EEE773
S31508001AD058030020D0A0000838B50F4C02460F491D
S31508001AE0204602F073F90A21204601F08FFA0546CE
S31508001AF02046FEF73DFBA84201D0002038BD002550
S31508001B0025702046FEF734FB02462946204601F09A
S31508001B1021FB0120F2E700BF58030020DCA00008E3
S31508001B2008B50A2301F0F0F90028D4BF00200120E7
S31508001B3008BD00002DE9F8438046154D00244FF0F6
S31508001B40FF37DFF8509004E02746013423358A2C06
S31508001B501AD02846FEF70CFB02462946404602F0F4
S31508001B6090F90028F0D004EB8406C6EBC6064E446E
S31508001B703046FEF7FDFA02463146404602F081F944
S31508001B80002808BF2746E0E73846BDE8F88300BFC7
S31508001B90547A0008348D000808B500F07FFC024B23
S31508001BA000221A6108BD00BF002C0140034B1968CA
S31508001BB01A4613685B1A8342FBD3704784040020D5
S31508001BC070B500F07BFC00F05DFC4FF07E552846B2
S31508001BD000F01AFB06460146284600F099FB0B4C16
S31508001BE002463146204600F0D5FB2946204600F03D
S31508001BF01FFC204600F010FC204600F014FC0220D2
S31508001C00FFF7D4FF00F044FC012070BD002C014012
S31508001C1038B5054600F036FC094C2946204600F042
S31508001C2007FC0546204600F0F7FB204600F0FBFBC4
S31508001C300220FFF7BBFF00F02BFC284638BD00BF8B
S31508001C40002C014008B5024800F0DAFB08BD00BFC9
S31508001C50002C014008B5024800F0C6FB08BD00BFCD
S31508001C60002C014010B5FFF7F5FF0024214601209E
S31508001C70FFF7FAFD21460220FFF7F6FDFFF7CEFC37
S31508001C80FFF7E4FC10BD000008B5024800F0C4FBED
S31508001C9008BD00BF002C014008B5024800F076FBDD
S31508001CA008BD00BF002C014070B52A4A13680133ED
S31508001CB013600024422622E029463046FFF77DFBC2
S31508001CC058B32046FFF754FA27E02046FFF782FA72
S31508001CD02046FFF7C7FA25E02046FFF75DFA21E020
S31508001CE029463046FFF769FB30BB2046FFF74AFA1C
S31508001CF022E02046FFF758FA0134142C28D00A2C83
S31508001D0014BF002501252046FFF7C0FA0028E3DDA9
S31508001D102046FFF751FA0528CEDD2046FFF74CFA94
S31508001D200528D2DC2046FFF7B9FA0028E1DD20466F
S31508001D30FFF748FA0528D3DD2046FFF743FA0528BA
S31508001D40DADD2046FFF74EFA2046FFF795FAD3E785
S31508001D5070BD00BF84040020034B19681A46136837
S31508001D605B1A8342FBD370478404002008B5FFF74B
S31508001D702BFCC820FFF7F0FFFFF72EFCC820FFF763
S31508001D80EBFFFFF721FCC820FFF7E6FFFFF724FC6F
S31508001D90C820FFF7E1FFFFF717FC4B20FFF7DCFF32
S31508001DA0FFF71AFC4B20FFF7D7FFFFF70DFC4B2078
S31508001DB0FFF7D2FFFFF710FC4B20FFF7CDFFFFF729
S31508001DC003FC4B20FFF7C8FFFFF706FC4B20FFF785
S31508001DD0C3FFFFF7F9FBFFF7F7FB08BD234A1368B4
S31508001DE043F001031360136813F0020FFBD01F4A78
S31508001DF0536823F003035360536813F00C0FFBD1A9
S31508001E001A4A136823F080731360136813F0007F6F
S31508001E10FBD1174A136823F0070343F00103136045
S31508001E20A2F58052136843F480331360136813F4E1
S31508001E30003FFBD00D4B0F4A5A601A6842F0807279
S31508001E401A601A46136813F0007FFBD0074A5368D6
S31508001E5023F0030343F002035360074B0749196055
S31508001E60536843F480035360704700BF0010024074
S31508001E70002002400004110000000020006CDC0273
S31508001E80024AD36943F40003D36170470010024045
S31508001E902DE9F041C4B0FFF7A1FFFFF7F1FFB34BFF
S31508001EA000221A60B24B1B68B24AA2FB03239B09A5
S31508001EB0013BB3F1807F09D2AF4A5360AF4BF021A3
S31508001EC083F823100023936007231360FFF70CFDA4
S31508001ED0FFF776FEFFF72AFD00F0F0FAFFF762FC3F
S31508001EE0002421460120FFF7BFFC21460220FFF708
S31508001EF0BBFCFFF7B7FEFFF739FFA14DDFF8B0824D
S31508001F00A04E05F2532700210491FC2205A801F0F2
S31508001F1021F90A2000F090FF30B900F0C9FA00282C
S31508001F2040F01681002456E10A224FF4807104A875
S31508001F30FFF7F6FD04A8FFF7FDFD142800F203815C
S31508001F40DFE810F0150019001C001F002200300001
S31508001F5033003600440058006C0074007C008F0083
S31508001F60A200AC00BF00D700DA00E700F40028465C
S31508001F70FFF7B2FDD1E7FFF775FECEE7FFF746FBA1
S31508001F80CBE7FFF74BFBC8E7FFF750FB38B905F17E
S31508001F908C0205F56D710220FFF762FDBDE705F1BC
S31508001FA06902F6E7FFF74AFBB7E7FFF74FFBB4E727
S31508001FB0FFF754FB38B905F18C0205F2D731022038
S31508001FC0FFF74EFDA9E705F16902F6E703AA6E4990
S31508001FD004A801F01BFF03990120FFF745FC20B177
S31508001FE005F1AF00FFF778FD97E705F14600FFF723
S31508001FF073FD92E703AA644904A801F007FF039951
S315080020000220FFF731FC20B105F1AF00FFF764FDB0
S3150800201083E705F14600FFF75FFD7EE70120FFF73E
S315080020205DFC5A4A0121FFF7CFFC76E70220FFF74D
S3150800203055FC574A0121FFF7C7FC6EE703AA524928
S3150800204004A801F0E3FE0398FFF7E2FD20B105F1CD
S31508002050AF00FFF741FD60E705F14600FFF73CFDDD
S315080020605BE7FFF7EFFD38B105F1D20205F235510E
S315080020700220FFF7F5FC50E705F1F50205F23551A8
S315080020800220FFF7EDFC48E7FFF7E4FD05F58C7243
S3150800209005F235510220FFF7E3FC3EE7FFF7F4FDB2
S315080020A038B105F5AF7205F235510220FFF7D8FCB5
S315080020B033E705F2811205F235510220FFF7D0FC0D
S315080020C02BE7344B986AD96A00F04EF90446FFF7B5
S315080020D0E3FD58B905F18C0305F5D272009205F2B5
S315080020E0355203212046FFF76FFC16E705F1690311
S315080020F0F2E7FFF73BFE10E7274B1B68274A1268F3
S315080021001344274A1068274A01211844FFF714FC8C
S3150800211003E703AA1C4904A801F078FE0398FFF711
S3150800212087FB214A0121FFF707FCF6E603AA414689
S3150800213004A801F06BFE0398FFF7B6FB1B4A0121C2
S31508002140FFF742FCE9E605F12300FFF7C5FCE4E6E4
S3150800215000F0B4F9FFF77EFDFFF784FD05F5F5728B
S3150800216005F235510220FFF77BFCDBE684040020EC
S3150800217000000020D34D621010E000E000ED00E002
S31508002180D874000828A10008E4A00008ECA00008FC
S31508002190F4A00008002C0140E8F7FF1FECF7FF1F2A
S315080021A0F0F7FF1FFCA0000810A1000820A10008F6
S315080021B018A1000805F2A943009333463A460321BD
S315080021C02046FFF7B9FB2046FFF714F808E001346C
S315080021D0142C3FF498AE2046FFF71CF80028E9D1E6
S315080021E02046FFF71FF80028F1D005F2A94300930F
S315080021F0334605F2762203212046FFF79DFB20464B
S31508002200FFF700F8E3E700BFF8B50546FEF71CF947
S3150800221006460F4634A3D3E90023FEF7F3FB00284E
S315080022205ED033A3D3E9002330463946FEF7D6FB02
S31508002230041C18BF01242EA3D3E9002330463946CF
S31508002240FEF7E0FB48B12CA3D3E900233046394614
S31508002250FEF7C4FB002818BF092427A3D3E90023E7
S3150800226030463946FEF7CEFB48B125A3D3E900230D
S3150800227030463946FEF7B2FB002818BF632420A370
S31508002280D3E9002330463946FEF7BCFB48B14FF088
S315080022907E512846FEF724FF40F2E733002818BF90
S315080022A01C464FF07E512846FEF72EFF40B11649D0
S315080022B02846FEF715FF42F20F73002818BF1C4682
S315080022C011492846FEF720FF40B110492846FEF777
S315080022D011FF4FF6FF73002818BF1C462046F8BDAD
S315080022E00024A8E7AFF300808DEDB5A0F7C6D03E71
S315080022F0F168E388B5F8043F7B14AE47E17A843F7A
S315080023009A9999999999B93F000020410000484245
S3150800231070B504460E46124B1868FEF7EBFC2146CC
S31508002320FEF740FDFEF790F804460D463046FEF7E8
S3150800233069F800220B4BFDF729FF02460B4620469B
S315080023402946FEF703FAFEF7CFFBFEF7F1FEFEF786
S3150800235059F80022034BFDF717FFFEF7A5FB70BDE2
S31508002360000000200000F03F10B5013100FB01100D
S31508002370FEF7C0FC0446044B1868FEF7BBFC014692
S315080023802046FEF7C3FD10BD00000020006800F0DF
S315080023900100704710B403461048834214D099626E
S315080023A0D96841F00101D960DA621A6842F08102FF
S315080023B01A60012058611A6822F001021A605A69E7
S315080023C002435A6110BC7047054CA06940F400608E
S315080023D0A06104484FF000740460E0E7002C014057
S315080023E00010024000E100E0036823F001030360E7
S315080023F000234362006880F0010000F00100704786
S3150800240010B50446FFF7F0FF236843F00103236085
S31508002410206800F0010010BD00234362406AB0FA4C
S3150800242080F040097047436943F0010343617047F0
S3150800243070B505460C460846FEF706F80EA3D3E91E
S315080024400023FEF7DFFA80B10D492046FEF752FE5B
S3150800245068B12046FFF7D8FE064601462046FFF734
S3150800246057FFAE62E862012000E0002070BD002040
S31508002470FCE700BFAFF30080F168E388B5F8E43EF7
S3150800248000002041014B01221A70704758040020B1
S31508002490014B00221A70704758040020034B1B7822
S315080024A013B9024B01225A70704700BF5804002026
S315080024B0014B5878704700BF58040020014B002292
S315080024C05A70704758040020074A4FF41653136091
S315080024D008239371002313715371044A1380044A25
S315080024E001211170537070478C0600208804002063
S315080024F05C04002000F00F034BF68F7248F6BF719C
S31508002500984218BF0A4698420CBF4FF480501020D4
S3150800251003F1805303F5B8539B00196848401040EF
S315080025201860704710F0800F17D100F0070000F10F
S31508002530805000F5B85080000368C3F30133012BBF
S3150800254000D07047036823F4E04323F070031B04AC
S315080025501B0C43F400530360704700F0070000F1BA
S31508002560805000F5B85080000368C3F30113012BAF
S31508002570E7D1036823F4E04323F070031B041B0C24
S3150800258043F030030360DCE710B50446FFF7B2FFFB
S3150800259044F08000FFF7AEFF10BD00F1805000F553
S315080025A0B8508000036883F4405323F4804323F033
S315080025B070031B041B0C0360704700F1805000F584
S315080025C0B8508000036883F0300323F4E04323F017
S315080025D040031B041B0C03607047000030B42748F7
S315080025E001230360264A002393759360D360136121
S315080025F00360244A9370D37053701370224A136091
S315080026005360402191604FF40441D1601032802418
S3150800261014605360C0259560D16010324FF4807500
S31508002620156051604FF4A0759560D16010324FF473
S31508002630C07111604FF4805151604FF492759560E6
S31508002640D160A2F5E0624FF4C8711160503A43F2C6
S3150800265020211160043221211160043243F2020163
S315080026601160043243F223611160383213604FF46B
S315080026701F430360054B1C6030BC7047405C00403C
S31508002680940600205C040020206300404C5C004057
S3150800269082B00190019B33B100BF019B013B0193BE
S315080026A0019B002BF8D102B07047000038B5124BD9
S315080026B0DC68C4F309048C42A8BF0C46B4B1A3F580
S315080026C028731968002C11DD0170090A02460138C1
S315080026D020440A4D012307E002F8011F013B11BF00
S315080026E0090A2968043502238242F5D10020FFF73A
S315080026F054FF204638BD00BF206300408460004078
S3150800270070B5402907DD4026134B5E600546002359
S3150800271012491C460BE0104B596019B1002912DD0D
S315080027200E46F3E70E4612E02A1AB2420DDA15F8FB
S31508002730012B9A4014430833082BF5DD0C6004314D
S3150800274000242346F0E70E4601E003B10C600020A2
S31508002750FFF733FF304670BD20630040006000403D
S3150800276008B500210148FFF7CBFF08BD14A00008F3
S31508002770034B1B7813F0600F0CBF01200020704735
S3150800278094060020044B187800F06000202814BF37
S3150800279000200120704700BF9406002038B50D4B75
S315080027A093F90030002B00DB38BD0A4CA168256977
S315080027B0E3689942A8BF19462846FFF7A1FF0544D2
S315080027C02561A3681B1A01D4A360EDE7014B00221B
S315080027D09A60E9E79406002008B5164B5A881B78D4
S315080027E0012B05D02BB1022B08D00020FFF7CCFE19
S315080027F008BD012AFCD10F4B1875F9E7B2B90D4B84
S315080028009B88812B07D0832B05D0022B03D0002071
S31508002810FFF7BAFEECE728B11846FFF76BFEFFF79D
S315080028209FFFE5E71846FFF77DFEF8E70020FFF76C
S31508002830ABFEDDE79406002000B583B0284A13787E
S31508002840918800228DF804208DF80520812B16D05A
S31508002850822B20D0802B03D00020FFF795FE17E0AF
S315080028601F4B1B7D13B102238DF804301C4B5B7D77
S315080028702BB19DF8043043F001038DF80430184B52
S315080028804022DA6002229A6001AA1A61FFF786FFDF
S3150800289003B05DF804FB812910D0832917D00229DB
S315080028A003D00020FFF770FEF2E70E4B1B68C3F358
S315080028B00133012BE3D18DF80430E0E70A4B1B689E
S315080028C0C3F30113012BDAD18DF80430D7E7074B90
S315080028D01B68C3F30113012BD1D18DF80430CEE761
S315080028E094060020085C0040045C00400C5C004034
S315080028F008B51A4B5A88130A022B29D0032B13D072
S31508002900012B03D00020FFF73FFE0CE014491220EC
S31508002910124BDA888242A8BF02464020D8609A60E5
S315080029201961FFF73BFF08BDD2B2032A0CD8DFE8CE
S3150800293002F0021205080B490420E9E70A4920209B
S31508002940E6E70A491A20E3E70020FFF71DFEEAE753
S3150800295007494320DCE707491020D9E794060020F9
S315080029605CA00008ACA0000870A0000890A00008B1
S3150800297018A00008B0A0000808B5FFF7F1FE024B42
S315080029809A78024B1A7108BD940600205C04002050
S3150800299008B5094B5B8853B1FFF796FD064B5A8875
S315080029A09A75064B0122DA70FFF7DAFE03E0024A4F
S315080029B09375024AD37008BD940600205C04002073
S315080029C008B507210248FFF771FEFFF7C9FE08BDE3
S315080029D08C06002008B5044B5B881B0A034A138043
S315080029E0FFF7BEFE08BD00BF94060020880400203D
S315080029F008B5054B4022DA6007229A60034A1A6135
S31508002A00FFF7CCFE08BD00BF940600208C06002008
S31508002A1008B508212B48FFF749FEFFF7A9FE00284D
S31508002A2037D0284B5B780B2B33D8DFE803F01C092B
S31508002A30320D32062C32112F1F27FFF79DFF36E085
S31508002A400020FFF7C9FE32E00120FFF7C5FE2EE0A1
S31508002A501C4B4022DA6001229A6003F116021A61C1
S31508002A60FFF79CFE23E0FFF7E7FE20E0154B012267
S31508002A709A60154A1A61FFF791FE18E0FFF724FDE0
S31508002A80FFF76EFE13E0FFF733FF10E0FFF780FF56
S31508002A900DE0FFF777FE38B10A4B5B78212B0AD099
S31508002AA0222B0BD0202B03D00020FFF723FD08BDD7
S31508002AB0FFF756FEFBE7FFF79BFFF8E7FFF78AFFEE
S31508002AC0F5E700BF9406002014A0000800B591B0F1
S31508002AD0FFF74EFE58B9FFF755FE90B10A4B5B78E3
S31508002AE0202B0BD1FFF76CFFFFF73AFE03E04021DE
S31508002AF06846FFF7DBFD11B05DF804FBFFF730FE13
S31508002B00F9E7FFF72DFEF6E79406002008B5FFF76C
S31508002B102FFE88B1094B5B78062B04D0212B09D0F0
S31508002B20FFF71EFE08E0054B9B68002B04DDFFF748
S31508002B3035FE01E0FFF714FE08BD00BF940600202D
S31508002B40F8B51F4B9868DB68C01A48BF00F5807057
S31508002B50402824DC31D0C0F3090343F40443194A5E
S31508002B605360174B01225A7008BB14E0013810D085
S31508002B70EB68FB5CDBB2EA680132D2B2EA608B40F2
S31508002B801C4308310829F1DD346004360024214647
S31508002B90ECE701B134600120FFF70FFDF8BD4020D6
S31508002BA040F40443074A5360054B01225A70064E07
S31508002BB000242146024D054FDAE73E20F0E700BF24
S31508002BC05C04002030630040006100408C04002053
S31508002BD008B5064BDA689B689A4202D0FFF7B0FF41
S31508002BE008BD024B00225A70FAE700BF5C040020B9
S31508002BF0F8B5224BDE68C6F30906214A13695269FD
S31508002C009B1A48BF03F58073C3F58075AE4214DA84
S31508002C101C4B1C683EB3E0B2194A13691A49C854DA
S31508002C2013690133DBB21361240A3146DFF85CC04D
S31508002C3001221348DFF850E013E0114B00221A7006
S31508002C40F8BDE3B207690EF8073003690133DBB252
S31508002C500361013A11BF240ADCF800400CF1040CA8
S31508002C6002220139EDD1AB1B3F2B03DC044B0022BA
S31508002C701A70E5E70220FFF790FCE1E740630040A1
S31508002C805C040020806200408C05002084620040BD
S31508002C9070B54B4B1B6813F4804F03D0484A6FF44A
S31508002CA08041116013F4005F03D0454A6FF4005168
S31508002CB0116013F4805F0BD042490A6822F00C02B7
S31508002CC00A603F4A6FF4805111603F4A00219170B3
S31508002CD013F4006F0BD03A4A6FF40061116039495A
S31508002CE00A6842F00C020A60374A0121917013F40F
S31508002CF0806F3AD113F4007F0CD0314A6FF400711B
S31508002D001160314A916901319161927812B12E4A66
S31508002D100021917013F4807F09D0294A6FF48071DD
S31508002D201160294A927812B9274A0121917013F441
S31508002D30004F20D0224A6FF40041116003F00F04BF
S31508002D4004F1805202F5B8529200116888B213F065
S31508002D50100F19D040F68F730B4013607CB911F42D
S31508002D60006F09D0FFF754FE05E0154B6FF480623B
S31508002D701A60FFF733FC70BDFFF7A8FEFBE7022CCD
S31508002D80F9D1FFF735FFF6E70F4B1B7963B921F445
S31508002D90E14121F070010904090C11606CB1012CA4
S31508002DA0E9D1FFF715FFE6E7074D2B7943F08003D6
S31508002DB0064E336000232B71E9E7FFF7A7FEDAE733
S31508002DC0445C0040405C00405C0400204C5C0040D1
S31508002DD038B5124B002012491A1D186013468A424C
S31508002DE0FAD100240F4B9C750F4BDC709C70FFF7D3
S31508002DF06BFB0E4D03232B606420FFF749FC012370
S31508002E002B600B4B1C604FF47A70FFF741FC094BA3
S31508002E104FF480121A60FFF7E1FB38BD00600040EE
S31508002E2000640040940600205C040020405C0040DA
S31508002E30445C004000E100E00F4A5369126993427E
S31508002E4015D00E4AD25CD2B2904212D010B40A49BA
S31508002E500A4C0133DBB20A699A4205D0E25CD2B267
S31508002E608242F6D1012000E0002010BC7047002005
S31508002E7070470120704700BF5C0400208C050020C5
S31508002E8010B51D4B5A691B699A4231D01A4A5369C3
S31508002E901A49CB5C037053690133DBB2536113786B
S31508002EA003F0FF042BBB937803F0FF040BBBD37826
S31508002EB003F0FF040BB901241BE0114B4FF48012F9
S31508002EC01A600D4A136952699B1A48BF03F5807345
S31508002ED0C3F58073402B04DC0A4B4FF480121A604A
S31508002EE007E0054B01221A700220FFF756FBF3E7AD
S31508002EF00024204610BD00BF5C0400208C0500207D
S31508002F0080E100E000E100E02DE9F04782B082466A
S31508002F1088461D469146002A3CD001F1FF38204BD1
S31508002F209E69B8F1000F24DD00271D4C62692369EC
S31508002F309A4220D1E37893B1A37883B9A3699B1BFE
S31508002F409D420CD230BF626923699A4213D1E37855
S31508002F502BB1A3781BB9A3699B1BAB42F2D8B9F175
S31508002F60000F02D000230AF80730384602B0BDE841
S31508002F70F0870027F6E70DF10700FFF781FF30B16C
S31508002F809DF807300AF8073001374B45E7D0474523
S31508002F90CCDBE4E7024B9E690029C5DC0027E4E7A1
S31508002FA05C040020054BDB7833B1044B987880F03D
S31508002FB0010000F0010070470020FAE75C040020D9
S31508002FC00E4A93680133DBB2D2689A4214D010B520
S31508002FD00A4A91680A4C60549360537803F0FF00DC
S31508002FE003B110BD4FF48014064B1C60FFF7A8FD13
S31508002FF0054B1C600120F4E7002070475C040020A4
S315080030008C04002080E100E000E100E02DE9F041B9
S3150800301007460E46174B9D694FF000081C463B783D
S31508003020E3B1E378D3B1A378C3B9A368E2680133FF
S31508003030DBB2934215D1A3695B1B9E420ED330BF08
S31508003040E3785BB1A3784BB9A368E2680133DBB2D6
S31508003050934206D1A3695B1BB342F0D94046BDE84B
S31508003060F0813878FFF7ACFF0028D8D0013708F18F
S315080030700108D4E75C0400200D4885460D480E4932
S315080030800E4A002302E0D458C4500433C4188C42B4
S31508003090F9D30B4A0B4C002301E013600432A24219
S315080030A0FBD3AFF3008000F031F8FEF7F1FEFEE740
S315080030B00000012000000020D401002064A40008BC
S315080030C0D4010020BC060020FEE7000008B50A4B24
S315080030D01B6843B1084B1B6818446B46984206D8D0
S315080030E0054B186008BD044B044A1A60F2E700F065
S315080030F007F80C230360F5E778040020C0060020D3
S31508003100014B1868704700BF0400002070B5002501
S315080031100C4E0D4CA41BA410A54209D104F0D0F9FD
S3150800312000250A4E0A4CA41BA410A54205D170BD61
S3150800313056F8253098470135EEE756F82530984772
S315080031400135F2E75CA400085CA400085CA400084A
S3150800315060A4000803460244934200D1704703F86E
S31508003160011BF9E7002B2DE9F0471E46BBBF03F10B
S3150800317000431E4600232D2388B0149FDDE9121A4A
S3150800318027F02007462F1446109D0B7004D0452FB4
S3150800319000D10135022300E0032307AA049206AAF8
S315080031A0CDE902A2CDE900352246334601F0DCFD21
S315080031B0472F804602D1119BDB0726D5462F08EB01
S315080031C0050911D198F80030302B0AD100220023C6
S315080031D020463146FDF7F8FB18B9C5F10105CAF8CE
S315080031E00050DAF800309944002200232046314680
S315080031F0FDF7EAFB38B93022079B4B4505D2591C27
S3150800320007911A70F8E7CDF81C904046079B159A67
S31508003210A3EB0803136008B0BDE8F087F7B50029EB
S31508003220B4BF2D232B230446B8BF4942092904F805
S31508003230022B437021DD0DF107031F460A2691FB79
S31508003240F6F506FB1511092D01F1300103F8011CED
S3150800325003F1FF32294609DC3031023B02F8011C32
S31508003260BB42224604D3101A03B0F0BD1346E6E764
S3150800327013F8012B04F8012BF2E730231944837065
S31508003280021DC170EFE700002DE9F04F91B00C4622
S315080032901A9F93461E46054602F056FE03681846D0
S315080032A00993FCF765FF00230E933B680A900733E2
S315080032B023F0070303F1080294F81880D4F800A055
S315080032C03A60D3E90023C4E91223D4E9127929F034
S315080032D000430B934FF0FF32A64B38460B99FDF788
S315080032E0A5FB68BB4FF0FF32A24B38460B99FDF79A
S315080032F07FFB28BB0022002338464946FDF76EFBB4
S3150800330010B12D2384F843309B4F9C4BB8F1470FDF
S3150800331098BF1F4603234FF0000923612AF00403D0
S31508003320236000965B460FAA2146284600F0E2F97C
S31508003330013040F090804FF0FF3011B0BDE8F08FBB
S315080033403A464B4638464946FDF770FB10B18C4F56
S315080033508C4BDBE763684AF48062591C0DA80EA9FA
S3150800336040D1062363604FF0000C0DF13303CDE91D
S31508003370012363682260CDE9030800933A464B4669
S31508003380CDE9051C2846FFF7EDFE08F0DF03472BBD
S31508003390074609D10D9BD81C02DB6268934247DDBC
S315080033A0A8F102085FFA88F8B8F1650F0D9924D8D4
S315080033B00139424604F150000D91FFF72FFF0E9A8E
S315080033C081461318012A236102DC2268D10701D538
S315080033D0013323619DF83330002BA2D02D2384F8C6
S315080033E043309EE7B8F1670F00F06E81B8F1470FDA
S315080033F0B9D1002BB7D10123B4E7B8F1660F19D1BB
S31508003400002963680CDD216113B92268D20702D549
S3150800341001330B4423610D9B4FF00009A365D9E7DF
S3150800342013B92268D00701D50233F3E70123F1E780
S315080034304FF06708DDE90D32934205DB2268236108
S31508003440D107E8D50133E5E7002BCCBF0123C3F14B
S3150800345002031344DEE723685A0507D423693A466C
S3150800346059462846B047013029D164E7B8F1650FB7
S3150800347040F2D780D4E9120100220023FDF7A4FA0E
S3150800348088B30123404A59462846B04701303FF4DD
S3150800349052AFDDE90D239A4202DB2368D8070ED521
S315080034A0DDE9092359462846B04701303FF443AFC2
S315080034B0002704F11A080E9B013BBB4209DC23686E
S315080034C09F0700F1FD80E0680F9B9842B8BF184639
S315080034D033E70123424659462846B04701303FF4B0
S315080034E02AAF0137E7E70D9B002B2BDC0123264A81
S315080034F059462846B04701303FF41DAF0D9B23B906
S315080035000E9B13B92368D907D9D5DDE9092359468E
S315080035102846B04701303FF40EAF4FF0000804F1DB
S315080035201A090D9B5B42434501DC0E9B97E7012375
S315080035304A4659462846B04701303FF4FCAE08F1E2
S315080035400108EEE70E9AA36D9A42A8BF1A46002A0A
S31508003550904607DD134659463A462846B047013095
S315080035603FF4E9AE04F11A034FF0000A28EAE878B6
S315080035700B9315E0FFFFEF7F34A1000830A1000888
S315080035803CA1000838A10008F3A2000801230B9A01
S3150800359059462846B04701303FF4CDAE0AF1010A34
S315080035A0D4F85890A9EB08035345EFDCDDE90D2361
S315080035B09A424F4414DB2368DA0711D40E9B0D99FF
S315080035C0A3EB0902A3EB01099145A8BF9146B9F1FE
S315080035D0000F0DDC002729EAE97904F11A0818E03A
S315080035E0DDE9092359462846B0470130E6D1A2E667
S315080035F04B463A4659462846B0470130EAD19AE63C
S315080036000123424659462846B04701303FF493AE57
S315080036100137DDE90D239B1AA3EB0903BB42EFDC57
S315080036204DE70E9A012A01DCDB0738D501233A4615
S3150800363059462846B04701303FF47DAEDDE90923F7
S3150800364059462846B047013007F101073FF473AEE3
S31508003650D4E912010E9B002203F1FF380023FDF77F
S31508003660B3F9C0B943463A4659462846B0470130E9
S315080036700DD160E60123424659462846B047013037
S315080036803FF459AE01370E9B013BBB42F2DC4B4679
S3150800369004F15002E4E6002704F11A08F3E70123CF
S315080036A0E1E70123424659462846B04701303FF430
S315080036B042AE0137E3680F9A9B1ABB42F1DC02E778
S315080036C0002704F11908F5E7002B3FF494AE4FF0F4
S315080036D0000CCDE9051C0DF133012260CDE9030884
S315080036E0CDE9012100933A464B462846FFF73AFDB5
S315080036F007464FE62DE9F04791461F468A680B694B
S3150800370006469342B8BF1346C9F8003091F84320DD
S315080037100C46DDF8208012B10133C9F80030236861
S31508003720990642BFD9F800300233C9F80030256837
S3150800373015F0060507D104F1190AE368D9F800203F
S315080037409B1AAB4229DC94F843302268003318BF31
S31508003750012392062ED404F1430239463046C04767
S31508003760013021D02368E56803F00603042B18BF4F
S315080037700025D9F800204FF0000908BFAD1AA36844
S31508003780226908BF25EAE5759342C4BF9B1AED185E
S315080037901A344D451AD1002008E00123524639460D
S315080037A03046C047013003D14FF0FF30BDE8F087FF
S315080037B00135C2E73020E11881F843005A1C94F815
S315080037C045102244023382F84310C4E701232246F7
S315080037D039463046C0470130E6D009F10109D8E735
S315080037E02DE9F04301F1430C0C46097E85B06E299C
S315080037F01746064698460C9A00F0B38022D86329E5
S3150800380036D00AD8002900F0B980582900F08380FC
S3150800381004F1420584F8421032E0642901D069298E
S31508003820F6D120681368050603F104012AD51B683A
S315080038301160002B03DA2D225B4284F843206F487F
S315080038400A2239E0732900F09D8008D86F2920D014
S315080038507029DDD1236843F02003236003E075292E
S3150800386017D07829D4D17823654884F8453055E0AF
S31508003870136804F14205191D1B68116084F842306B
S3150800388001238CE01B6810F0400F116018BF1BB2B3
S31508003890CFE713682568181D1060280601D51B6830
S315080038A002E06806FBD51B886F2914BF0A22082286
S315080038B05248002184F843106568002DA560C0F2BF
S315080038C09580216821F004012160002B3DD1002D4F
S315080038D040F08E806546082A0BD12368DB0708D599
S315080038E0236962689A42DEBF302305F8013C05F178
S315080038F0FF35ACEB05032361CDF800803B4603AAF0
S3150800390021463046FFF7F6FE01304DD14FF0FF3025
S3150800391005B0BDE8F083394884F845101368216876
S315080039201D1D1B6815600A060BD5CA0744BF41F062
S31508003930200121601BB9226822F020022260102291
S31508003940B7E74D0648BF9BB2EFE76546B3FBF2F112
S3150800395002FB1133C35C05F8013D0B460029F5D17E
S31508003960B9E713682568181D6169106028061B6881
S3150800397001D5196002E06A06FBD519800023654661
S315080039802361B9E71368191D11601D686268002173
S31508003990284602F001FB08B1401B6060636823619A
S315080039A0002384F84330A7E723692A463946304678
S315080039B0C0470130AAD023689B0713D4E068039B4D
S315080039C09842B8BF1846A3E701234A463946304607
S315080039D0C04701309AD00135E368039A9B1AAB4277
S315080039E0F2DCEBE7002504F11909F5E7002BACD169
S315080039F0037804F1420584F842306CE740A10008D8
S31508003A0051A100082DE9F04F9A468B6816465A1EB2
S31508003A10B2F5AE7F88BF6FF4AE7287B085BF9B18CC
S31508003A200193002340F25D1388464FF0000B8CBFCC
S31508003A308B6001930B68074643F4F06348F81C3B18
S31508003A400C4645465A46D946CDE903BBCDF808B0DB
S31508003A50A16881B133681B78492B71D04DD8392BB1
S31508003A6040D8312B80F088802D2B00F0908015D817
S31508003A702B2B00F08C80B9F1000F03D0236823F4B8
S31508003A8080732360013A012A00F2EA80454500F274
S31508003A90DC800126304607B0BDE8F08F2E2B00F0FB
S31508003AA09F80302BE7D1206810F4807F64D0019B7B
S31508003AB020F08000206009F101091BB1013B0131AA
S31508003AC00193A160A368013BA360236901332361C5
S31508003AD07368013B002B736040F3AC803368013395
S31508003AE03360B5E7452B00F08580462B6AD0412B1D
S31508003AF0C1D1012ABFD1022246E0652B7AD018D857
S31508003B00542B66D011D84E2BB5D1002A46D1B9F11F
S31508003B10000F45D1216801F4E060B0F5E06F3FD1B0
S31508003B2021F4F061216001222EE0592B1ED0612B71
S31508003B30DEE76E2BE9D015D8662B43D0692B9AD1D0
S31508003B40BBF1000F38D1B9F1000F97D1216801F404
S31508003B50E060B0F5E06F95D121F4F06121604FF097
S31508003B60010B11E0742B34D0792B84D1BBF1070FEC
S31508003B7081D14FF0080B07E012EB0B0F7FF47BAFF8
S31508003B80216821F4C07121602B7001359AE72168FC
S31508003B9008067FF570AF21F08001F4E7022A47D0C6
S31508003BA0BBF1010F03D0BBF1040F7FF464AF0BF137
S31508003BB0010B5FFA8BFBE7E7BBF1030FF7D0BBF10D
S31508003BC0050FF2E7BBF1020F7FF455AF4FF0030B79
S31508003BD0DAE7BBF1060F7FF44EAF4FF0070BD3E7DA
S31508003BE0216888057FF547AF21F420712160CDF85B
S31508003BF00890C9E7216801F4A060B0F5806F06D087
S31508003C0048057FF538AFB9F1000F3FF43BAF88059B
S31508003C1058BF029821F4F06158BFA9EB000041F49F
S31508003C20C07158BFCDE9030521604FF00009ABE725
S31508003C300322A9E7D4F880313146384605929847D9
S31508003C40059A00283FF404AF15E7D4F87C313246CC
S31508003C5015F8011D384698472369013B236115E786
S31508003C600BF1FF33062B0AD8BBF1020F67D9ABF16C
S31508003C70030B5FFA8BFBA5EB0B0B5D454AD123685B
S31508003C80DA051FD55B0567D415F8011C2369652974
S31508003C9003F1FF3305F1FF3B23610DD045290BD016
S31508003CA0D4F87C31324638469847236915F8021C01
S31508003CB0013BA5F1020B2361D4F87C313246384624
S31508003CC098475D46266816F0100676D12E7023684A
S31508003CD003F4C063B3F5806F41D1029BA9EB0303DC
S31508003CE05A42002B48D141460022384600F010FFC0
S31508003CF02568804615F0020F8946DAF8003046D066
S31508003D001A1DCAF800201B68C3E90089E368013355
S31508003D10E360BFE6D4F87C31324615F8011D384613
S31508003D2098472369013B2361A7E7D4F87C313246DB
S31508003D3015F8011D384698472369013B2361454517
S31508003D40F3D8A6E6D4F87C31324615F8011D384674
S31508003D5098472369013B23614545F3D899E6039BB8
S31508003D60002BC0D004990A2332460131384600F0A8
S31508003D705BFF039B049DC21A04F26F139D4228BF82
S31508003D8004F5B7750E49284600F020F8ABE71F1D65
S31508003D9015F00405CAF80070B5D11F6802460B462F
S31508003DA0FCF744FE20B1284600F00CF83860ADE771
S31508003DB040464946FCF798FEF8E700266AE600BF43
S31508003DC062A10008004870470000C07F0EB46FF07B
S31508003DD0004100B59CB01DAB029006900791049176
S31508003DE00848094953F8042B0591006802A901936C
S31508003DF002F0F2FD0022029B1A701CB05DF804EB7B
S31508003E0003B07047040000200802FFFF0EB44FF409
S31508003E10017230B59CB01FAC54F8045BADF81420A1
S31508003E2002900690FCF7A4F90B4B03900B93002322
S31508003E300F9314934FF6FF7307900848ADF81630A2
S31508003E402A46234602A90068019402F017FF1CB00F
S31508003E50BDE8304003B07047613E0008040000200A
S31508003E6000207047034610B51A785C1C3AB9013B26
S31508003E7011F8012B03F8012F002AF9D110BD2346AA
S31508003E80F2E72DE9F04106460F4600EB0208B04579
S31508003E9019D016F8014B02F047F82044437817F872
S31508003EA0015B03F00303012B08BF203402F03CF842
S31508003EB02844427802F00302012A08BF2035601B15
S31508003EC002D1002DE3D10020BDE8F0812DE9F041B3
S31508003ED00F46904602F044FB04460D46B8F1000F23
S31508003EE011D0C7F30A53C3F16B03002B0BDD002473
S31508003EF01B0503F17F5505F5401522462B46FCF7B1
S31508003F00FBFA04460D4620462946BDE8F081000026
S31508003F102DE9F04F1F460023A1B0834638460E46CA
S31508003F2017921C9302F00EF880460068FCF720F9F9
S31508003F304FF0000904464FF0000A1B961B9B1A789F
S31508003F400D2A32D8092A36D2002A3ED000230D93EC
S31508003F501B9D2B78302B40F0AC806B78582B01D00A
S31508003F60782B67D10D9B029701931CAB0093894A66
S31508003F701DAB1BA9584601F0FBFC10F007040646CA
S31508003F8005D0062C2BD1002301351B950D93179BC5
S31508003F90002B40F0A6850D9BE3B14A460AF1004383
S31508003FA01046194621B0BDE8F08F2B2A15D02D2AC8
S31508003FB004D0202ACAD101331B93BFE701220D92F0
S31508003FC05A1C1B925B78002BC2D1179B1B96002BA1
S31508003FD040F085854A465346E2E70022EFE71C9AF9
S31508003FE03AB135211EA802F0AEFB1C99584602F0DC
S31508003FF020F8013C042C06D8DFE804F00A0314175D
S315080040000A00DDE91E9A3107C1D54AF0004ABEE723
S315080040101D9ADDE91E9302F2334223F4801343EA24
S31508004020025AF0E7DFF870A1EDE76FF0004A4FF0AB
S31508004030FF39E8E71B9B5A1C1B925B78302BF9D09B
S31508004040002BA4D0012300250A2207931B9B069563
S31508004050089304951B980778A7F13003D9B2092964
S3150800406029D92246D8F8001003F0F1F8002831D0F3
S3150800407000203B460246049C0590652B01D0452B43
S3150800408014D124B910B9079B002B9ED000241B9E7F
S31508004090731C1B9373782B2B78D02D2B70D04FF075
S315080040A0000CA3F13007092F7CD91B964FF0000EA0
S315080040B09AE00023C7E7049901300829D7BF069973
S315080040C002FB053502FB01330693049B1B90013363
S315080040D00493BFE71B9B1A191B92049A1B5D002ABF
S315080040E037D00246049CA3F13001092913D90121CE
S315080040F00591C2E71B9B01305A1C1B925B78302B3B
S31508004100F8D0A3F13102082A00F2F0841B9A08922B
S31508004110024600200446B3F1300E00F1010112D028
S315080041200A440A27214600EB040C8C4513D12118B2
S31508004130082904F10104044419DC0A21069B01FB41
S3150800414003E3069300211B9B581C1B905B780846CB
S31508004150C9E70498D3E7082901F1010103DC069BA6
S315080041607B430693E1E71029D8BF7D43DDE7102C92
S31508004170DCBF0A2101FB05E5E4E70123059381E796
S315080041804FF0010CB31C1B93B3788AE74FF0000C71
S31508004190F8E700BF68A100080000F07F1B9B5F1CC2
S315080041A01B975B78302BF9D0A3F13107082F3FF620
S315080041B07DAFA3F1300E1B9B09931B9B5F1C1B97BE
S315080041C05B78A3F13008B8F1090F37D909997F1A36
S315080041D0082F44F61F6737DCBE45A8BFBE46BCF1AC
S315080041E0000F01D0CEF1000E002C51D100287FF42B
S315080041F0CEAE079A002A7FF4CAAE059A002A7FF443
S31508004200E4AE4E2B27D021DC492B7FF4DEAEA44941
S315080042101BA801F0E1FD00283FF4D7AE1B9BA1497E
S31508004220013B1BA81B9301F0D7FD10B91B9B01335B
S315080042301B93DFF884A24FF00009A8E60A2101FBC8
S315080042400E3EAEF1300EB8E7BE46C8E7692BDED0A3
S315080042506E2B7FF4BAAE94491BA801F0BDFD002869
S315080042603FF4B3AE1B9B1B78282B0ED11EAA8F4991
S315080042701BA801F0C5FD052807D11F9BDDF878901E
S3150800428043F0FF4A4AF4E00A81E6DFF834A2D2E7AF
S31508004290AEEB02030793049B0698002B08BF234640
S315080042A0102C0493A046A8BF4FF01008FCF7AAF8F4
S315080042B0092C81468A4613DC079B002B3FF467AE20
S315080042C0079B7EDD162B65DC794A02EBC30E4A4650
S315080042D0DEE900015346FCF70FF981468A4656E6A1
S315080042E0734B03EBC80353E91223FCF705F906469B
S315080042F028460F46FCF786F802460B4630463946EE
S31508004300FBF744FF0F2C81468A46D5DD079BA4EBB5
S3150800431008089844B8F1000F40F39A8018F00F0384
S315080043200AD063494A4601EBC301D1E90001534665
S31508004330FCF7E2F881468A4638F00F0877D0B8F5D8
S315080043409A7F4BDD4FF00008CDF81080CDF820801D
S31508004350CDF8188022234FF00009DFF85CA1CBF8CE
S315080043600030089B002B3FF412AE1C99584601F00A
S3150800437060FE0699584601F05CFE0499584601F01D
S3150800438058FE0899584601F054FE4146584601F031
S3150800439050FEFCE5079AC4F125039342B6DB444D6B
S315080043A0C4F10F0405EBC4014A46D1E9000153469E
S315080043B0FCF7A2F8079B1C1B05EBC405D5E90023EF
S315080043C089E713F1160FA1DB394A4846A2EBC30267
S315080043D0D2E900235146FCF7B9F97EE7002348469F
S315080043E051461D46334E4FEA2818B8F1010F21DC15
S315080043F00BB181468A462F4BAAF1547A03EBC505C1
S315080044004A46D5E900015346FCF776F82A4B0A4690
S315080044100B402A4981468B4294D8A1F580118B42DC
S3150800442086BF4FF0FF39DFF89CA002F1547A0023CB
S3150800443005937BE018F0010F06D006EBC503D3E918
S315080044400023FCF759F8012301354FEA6808CCE741
S31508004450EDD0C8F1000818F00F020AD0144B4846F0
S3150800446003EBC2035146D3E90023FCF76FF98146F3
S315080044708A465FEA2818DAD0B8F11F0F24DD4FF014
S315080044800008CDF81080CDF82080CDF818802223BA
S315080044904FF000094FF0000ACBF8003061E700BF83
S315080044A035A10008BBA100083DA100087CA10008B1
S315080044B0F8A10008D0A100080000F07F0000A07C49
S315080044C00000F8FFFFFFEF7F18F0100318BF6A23FC
S315080044D04846059351460023A14DB8F1000F00F355
S315080044E013810BB181468A46059BBBB1CAF30A53B1
S315080044F0C3F16B03002B514610DD1F2B40F31081CF
S31508004500342BD8BF4FF0FF324FF00009CFBF4FF022
S315080045105C7A203B02FA03F303EA010A002200232D
S3150800452048465146FCF750FA0028A8D1069B049A3B
S31508004530009308992346584601F0CDFD08900028B7
S315080045403FF400AF079A079B002AC3F10003A8BFF0
S3150800455000234FF000080E9322EAE2731693CDF873
S315080045601080089B5846596801F02FFD06900028D0
S315080045703FF4F0AE089B0C301A6903F10C010232C5
S31508004580920001F017FD1EAB01931DAB00934A463E
S3150800459053465846CDE90A9A02F058F81C90002866
S315080045A03FF4D8AE0121584601F021FE0490034697
S315080045B000283FF4CFAE1D9D1E9A002DABBF0E9B63
S315080045C0169BEE185C1B059BA8BF169CA5EB03055E
S315080045D01544644B05F1FF35B8BF0E9E9D42C2F1E6
S315080045E0360280F2AF805B1B1F2BA2EB03024FF053
S315080045F0010700F39C80002507FA03F30F93B71809
S31508004600059BBE4214441C443346A8BF3B46A342FE
S31508004610A8BF2346002BC2BFFF1AE41AF61A0E9B40
S31508004620BBB11A460499584601F080FE049000284A
S315080046303FF490AE01461C9A584601F0E1FD0990F8
S3150800464000283FF487AE1C99584601F0F2FC099BF6
S315080046501C93002F7ADC079B002B08DD169A069917
S31508004660584601F063FE069000283FF473AE002C0E
S3150800467008DD22460699584601F0A6FE069000284F
S315080046803FF468AE002E08DD32460499584601F01C
S315080046909BFE049000283FF45DAE069A1C99584686
S315080046A001F000FF804600283FF454AE0024C3689A
S315080046B00499C4600C9301F0DBFEA04254DA0C9B0B
S315080046C0F3B9B9F1000F1BD1CAF31303C3B92AF022
S315080046D000431B0D1B05B3F1D66F11D9D8F814305A
S315080046E01BB9D8F81030012B0ADD4146012258467D
S315080046F001F06AFE0499804601F0BAFE002868DCDB
S31508004700059B002B72D130E618F0010F04D0D5E9CD
S315080047100023FBF7F1FE01234FEA68080835DCE6BB
S315080047204FF0FF3202FA03F303EA0909F6E6C5F188
S315080047307F4505F57F0505F57B45E23507FA05F55D
S315080047400F975CE7012300250F9358E73A461C9913
S31508004750584601F039FE1C9000287FF47CAFF9E535
S3150800476090A1000802FCFFFFCDF824A040F0898044
S315080047700C9ACAF3130342B3AF4A934256D1059B28
S315080047804846EBB15346AD4A4FF0FF311A40B2F1F5
S31508004790D46F18D8120DC2F16B0301FA03F39842CD
S315080047A044D1A74B099A9A4202D101303FF4D2ADBF
S315080047B0A24B099A4FF000091A4002F5801A9FE7A2
S315080047C04FF0FF33EBE70B46E9E77BBBB9F1000F88
S315080047D02CD105995346994AF1B102EA0A01B1F179
S315080047E0D66F19DCB1F15C7F7FF751AE0023954A8D
S315080047F04846CDE914325146DDE91423FBF77CFE21
S3150800480081468A4600297FF4B0AD00287FF4ADAD15
S315080048102223CBF80030A8E51340A3F580136FEAEE
S31508004820135A4FF0FF396FEA0A5A69E79DB1099B97
S315080048301D423FF465AF0C9B059A4846514673B135
S31508004840FFF744FB02460B46DDE90A01FBF79EFC2F
S3150800485081468A4654E70F9B13EA090FE9E7FFF7F3
S3150800486035FB02460B46DDE90A01FBF78DFC002203
S31508004870002381468A46FCF7A7F800287FF407AE8E
S315080048803EE70499404601F030FF00224FF080438E
S3150800489006460F46FCF7ACF8002875D00C9B002B93
S315080048A047D00026684F684D099B23F000431B0D2F
S315080048B01B050F930F9A654B9A4240F0CF80DDE9AE
S315080048C00A23CDE91423099B4846A3F1547A514695
S315080048D001F046FE02460B4630463946FBF70CFE0B
S315080048E04A465346FBF752FC0B465449584A194068
S315080048F0914281465ED90B9B02F15472934203D1D1
S315080049000A9B01333FF426AD4FF0FF39DFF830A19B
S315080049101C99584601F08DFB0699584601F089FB0B
S315080049200499584601F085FB4146584601F081FB3B
S3150800493017E6B9F1000F19D1099BC3F31303E3B9BD
S315080049400022414B30463946FCF748F8C8B90022E0
S31508004950404B30463946FBF7CFFD04460D4605F178
S31508004960004318941993DDE918679DE7B9F1010F1B
S3150800497003D1099B002B3FF48AAD0026364F00244D
S3150800498091E70C9C334DEAE7324B00223046394614
S31508004990FBF7B2FD0C9B04460D4633B901F1004303
S315080049A010901193DDE910677EE702460B46CDE9C4
S315080049B01023F7E703F1547A059B002BA8D12AF0B8
S315080049C000431B0D0F9A1B059A425646A0D129464D
S315080049D02046FCF741F8FBF725FD0B46024629461B
S315080049E02046FBF7D1FB0C9B04460D4633B9B9F1BB
S315080049F0000F03D1CAF31306002E6AD00AA3D3E91F
S31508004A00002320462946FBF7E9FF00287FF4ADACD2
S31508004A1007A3D3E9002320462946FBF7FDFF002814
S31508004A203FF476AFA1E400BF9535A094FFFFDF3FC2
S31508004A3035E5AF350000E03FFFFF0F000000F07FCF
S31508004A40FFFFEF7F000050390000F03F0000E07FD5
S31508004A50FFFF9F7C0000E03F0000F0BF059B13B3FB
S31508004A600F9BB3F1D46F1ED825A3D3E900232046A4
S31508004A702946FBF7BDFF90B129462046FCF714F8F6
S31508004A80002808BF0120FBF7BDFC0C9B04460D4619
S31508004A90D3B901F1004312901393DDE912670F9A17
S31508004AA007F1D6639F1ADDE90A0101F059FD0246AE
S31508004AB00B4630463946FBF71FFDDDE90A23FBF7AF
S31508004AC065FB81468A4677E702460B46CDE91223FF
S31508004AD0E3E70DA3D3E90023FBF780FF9FE7002355
S31508004AE00D931B9B179A1360FFF755BA652B4FF06A
S31508004AF000023FF442AB012114460591FFF7BFBA05
S31508004B000000C0FFFFFFDF419535A094FFFFCF3FB0
S31508004B10054B10B41B68054C1B6A002B08BF2346BF
S31508004B2010BCFFF7F5B900BF04000020680000209C
S31508004B302DE9F0478046894692461E460F463D4671
S31508004B40089815F8014B01F0EBF92044437813F067
S31508004B50080332D12D2C32D101227C78BD1C002EBF
S31508004B605DD0102E09D1302C07D12B7803F0DF0346
S31508004B70582B4FD110266C780235002A14BF4FF0F7
S31508004B8000416FF000410027B1FBF6FC384606FBF2
S31508004B901C1EA4F13003092B17D81C46A64223DD98
S31508004BA07B1C07D084451CD301D1A64519DB0127F8
S31508004BB000FB064015F8014BEBE72F46BFE72B2C09
S31508004BC004BFBD1C7C781A46C9E7A4F14103192B1A
S31508004BD001D8373CE2E7A4F16103192B04D8573C06
S31508004BE0DCE74FF0FF37E5E77B1C08D122230846B0
S31508004BF0C8F80030BAF1000F07D1BDE8F08702B156
S31508004C004042BAF1000FF8D00FB105F1FF39CAF8E2
S31508004C100090F2E73024002EAFD10826ADE7302CFD
S31508004C20A3D00A26A9E7000037B5064C064D246826
S31508004C30246A002C08BF2C460094FFF779FF03B0BE
S31508004C4030BD00BF04000020680000202DE9F74FA2
S31508004C5003690C698046A342C0F28480013C01F1D5
S31508004C60140700F1140657F8245056F824000135A5
S31508004C70B0FBF5F54FEA840C06EB0C0307EB0C09C1
S31508004C8001939DB34FF0000A3846B646D34650F80E
S31508004C90042B93B205FB03A3120C4FEA134A05FB38
S31508004CA002A29BB2ABEB0303DEF800B04FEA124A4E
S31508004CB01FFA8BFB5B441FFA82FBDEF80020814556
S31508004CC0CBEB124202EB23429BB243EA02434FEA82
S31508004CD0224B4EF8043BDAD256F80C3033B9019B16
S31508004CE0043B9E421A4631D3C8F81040404601F0AC
S31508004CF0BFFB002826DB30464FF0000C013557F87D
S31508004D00041BD0F800E08BB2ACEB03031FFA8EF25B
S31508004D1013440A0CC2EB1E4202EB23429BB243EA3F
S31508004D200243B9454FEA224C40F8043BE7D256F80D
S31508004D30242006EB84032AB9043B9E421A460BD369
S31508004D40C8F81040284603B0BDE8F08F1268043B47
S31508004D50002AC9D1013CC4E71268043B002AEFD1F6
S31508004D60013CEAE70020EEE72DE9F04F16461F461C
S31508004D70456A95B00446DDF88480CDE902673DB9F9
S31508004D80102001F0EFF86062C0E901550560C560C2
S31508004D90636A196851B15A68012393404A608B6067
S31508004DA0204601F046F90022636A1A603B1EAFBF2F
S31508004DB00023012223F000430393ACBFC8F8003058
S31508004DC0C8F80020AE4BDDF80C8033EA08031BD187
S31508004DD042F20F73209A1360029B23B9C8F313009B
S31508004DE0002800F04585229B53B9A64B21E0A64B27
S31508004DF006930833229A1360069815B0BDE8F08F1B
S31508004E00A04B06930333F5E7DDE90267002200238A
S31508004E1030463946FBF7D8FD824660B10123209A11
S31508004E201360229B002B00F02085984B229A136072
S31508004E30013B0693E0E712AB019313AB00933246AE
S31508004E403B46204601F002FCC8F30A558346002D6E
S31508004E507DD0B046C7F3130343F07F5949F4401990
S31508004E60A5F2FF35CDF840A00022894B40464946B9
S31508004E70FBF78AF97CA3D3E90023FBF73DFB7CA368
S31508004E80D3E90023FBF782F9064628460F46FBF7C7
S31508004E90C9FA79A3D3E90023FBF72EFB02460B4692
S31508004EA030463946FBF772F906460F46FBF7D4FD3E
S31508004EB000228246002330463946FBF78FFD48B16B
S31508004EC05046FBF7AFFA32463B46FBF77DFD08B97D
S31508004ED00AF1FF3ABAF1160F5AD8DDE902236D49ED
S31508004EE001EBCA01D1E90001FBF796FD002851D074
S31508004EF000230AF1FF3A0D93129B5D1B6B1E079365
S31508004F0043BF0023C5F1010907934FF00009BAF121
S31508004F10000F41DB079BCDF830A0534407930023CD
S31508004F2008931E9B092B00F28F80052BC4BF043BF8
S31508004F301E931E9BC8BF0025A3F10203D8BF0125F7
S31508004F40032B00F28D80DFE803F07B7D2F6FDDE910
S31508004F5012531D4405F23240202813DDC0F14000EB
S31508004F60029B08FA00F805F2124023FA00F048EA14
S31508004F700000FBF747FA01238046A1F1F879013DC5
S31508004F80109371E7029BC0F1200003FA00F0F0E7E6
S31508004F900123B0E70D90AFE7CAF100030893002399
S31508004FA0A9EB0A090C93BCE7012309931F9B002B65
S31508004FB074DD984604930022666A7260042202F140
S31508004FC01400984271686ED9204600F0FEFF636AA5
S31508004FD030601B68B8F10E0F069300F2ED80002DC5
S31508004FE000F0EA80DDE90223BAF1000FCDE90E23CD
S31508004FF077DD284A0AF00F034FEA2A1602EBC303A5
S31508005000F006D3E90023CDE90A2368D5DDE90E01C8
S31508005010214B0325D3E90823FBF798FBCDE90201C9
S3150800502006F00F061C4F4FE0012309931F9B5344BC
S3150800503003F1010804934346012BB8BF0123BAE7DD
S315080050400023B2E70023F0E70125002309951E9304
S315080050504FF0FF3300220493984612231F92AAE7C3
S3150800506001230993F4E700BF61436F63A787D23F23
S31508005070B3C8608B288AC63FFB799F501344D33F39
S315080050800000F07FC1A10008B8A10008F4A200083A
S315080050900000F83FF8A10008D0A1000801230493F6
S315080050A098461A46DAE701317160520087E7F10738
S315080050B008D5DDE90A01D7E90023FBF71DFACDE992
S315080050C00A01013576100837002EF0D1DDE90A23EA
S315080050D0DDE90201FBF73AFBCDE902011BE00225F7
S315080050E0A0E700F0A480DDE90E01CAF10006A04B96
S315080050F006F00F0203EBC203D3E90023FBF7FCF922
S3150800510002250023CDE902019A4F3611002E40F000
S315080051108380002BE0D10D9B002B00F08A80DDE90F
S315080051200223CDE90A23DDE90A010022924BFBF7A7
S3150800513055FC00287DD0B8F1000F7AD0049B002BCF
S3150800514036DDDDE90A0100228C4BFBF7D5F9CDE9FE
S315080051500201049E0AF1FF3701352846FBF762F97A
S31508005160DDE90223FBF7C8F90022854BFBF70EF8A9
S31508005170A1F15075CDE90A010B95002E5CD1DDE948
S31508005180020100227F4BFAF7FFFF0A9A2B46CDE968
S315080051900201FBF741FC002840F08182DDE90201AB
S315080051A00A9A05F10043FBF719FC002840F07582BE
S315080051B0DDE90E23CDE90223139B002BC0F24B81B8
S315080051C0BAF10E0F00F34781694B03EBCA03D3E923
S315080051D00023CDE904231F9B002B80F2D780B8F16A
S315080051E0000F00F3D38040F05782DDE90401002266
S315080051F0644BFBF781F9DDE90223FBF703FC46461E
S315080052004746002840F02D82069B069A5D1C3123EE
S315080052100AF1010A137028E2F20705D5D7E9002337
S31508005220FBF76AF901230135761008376EE7022580
S3150800523071E75746464690E74D4B03EBC60353E9DD
S315080052400201099B002B48D002460B4600204E4916
S31508005250FBF77CFADDE90A23FAF796FFCDE90A019E
S31508005260069DDDE90201FBF7F7FB1190FBF7DAF87B
S3150800527002460B46DDE90201FAF786FF119BCDE9E6
S315080052800201303305F8013BDDE90A23FBF7A6FBEB
S31508005290002863D1DDE9022300203749FAF774FFB5
S315080052A0DDE90A23FBF79AFB002840F0B580069B48
S315080052B0EB1A9E427FF77CAFDDE90A0100222F4BED
S315080052C0FBF71AF90022CDE90A01DDE902012B4BA9
S315080052D0FBF712F9CDE90201C3E7DDE90A23FBF77B
S315080052E00BF9069BCDE90A019D191E46DDE9020167
S315080052F0FBF7B2FB1190FBF795F802460B46DDE982
S315080053000201FAF741FF119BCDE90201303306F895
S31508005310013BAE424FF0000224D1DDE90A011A4BE7
S31508005320FAF734FF02460B46DDE90201FBF774FB88
S31508005330002871D1DDE90A2300201349FAF724FF72
S3150800534002460B46DDE90201FBF748FB00283FF45D
S315080053502FAF15F8013C6A1E302B01D0BA464AE039
S315080053601546F6E7054BFBF7C7F8CDE90201BDE799
S31508005370F8A10008D0A100080000F03F0000244072
S3150800538000001C40000014400000E03F069DDDE9D7
S315080053900267DDE9042330463946FBF7D7F9FBF700
S315080053A05BFB8146FBF73EF8DDE90423FBF7A4F82F
S315080053B002460B4630463946FAF7E6FE09F130064C
S315080053C005F8016B069E0246AE1BB0450B4635D165
S315080053D0FAF7DCFEDDE9042306460F46FBF71CFB5D
S315080053E0C8B9DDE9042330463946FBF7EDFA10B1B2
S315080053F019F0010F0FD15946204600F01AFE002376
S31508005400209A2B700AF101031360229B002B3FF4AC
S31508005410F3AC1D60F0E4574615F8012C6B1E392ACB
S3150800542006D1069A9A4207D13023137013460137DC
S315080054301A7801321A7091E71D46EDE70022994B5A
S31508005440FBF75AF80022002306460F46FBF7BCFA7C
S3150800545000289ED0CFE7099A002A00F088801E9A75
S31508005460012A6DDC109A002A66D003F233434D46B2
S31508005470089E079A01211A4420469944079200F08B
S31508005480B6FE0746002D0BDD079B002B08DDAB4259
S31508005490A8BF2B46079AA9EB0309ED1AD31A079357
S315080054A0089BEBB1099B002B65D08EB13946324675
S315080054B0204600F03BFF5A4601460746204600F0C4
S315080054C09FFE59460A90204600F0B3FD0A9B9B466C
S315080054D0089B9A1B04D05946204600F027FF8346AE
S315080054E00121204600F083FE0C9B0646002B00F0A7
S315080054F0C6811A460146204600F018FF1E9B06463E
